{
  "_format": "hh-sol-artifact-1",
  "contractName": "VoodooVaultBrokenPass",
  "sourceName": "contracts/VoodooVaultBrokenPass.sol",
  "abi": [
    {
      "inputs": [
        {
          "internalType": "string",
          "name": "_baseURI",
          "type": "string"
        }
      ],
      "stateMutability": "nonpayable",
      "type": "constructor"
    },
    {
      "anonymous": false,
      "inputs": [
        {
          "indexed": true,
          "internalType": "address",
          "name": "account",
          "type": "address"
        },
        {
          "indexed": true,
          "internalType": "address",
          "name": "operator",
          "type": "address"
        },
        {
          "indexed": false,
          "internalType": "bool",
          "name": "approved",
          "type": "bool"
        }
      ],
      "name": "ApprovalForAll",
      "type": "event"
    },
    {
      "anonymous": false,
      "inputs": [
        {
          "indexed": true,
          "internalType": "address",
          "name": "previousOwner",
          "type": "address"
        },
        {
          "indexed": true,
          "internalType": "address",
          "name": "newOwner",
          "type": "address"
        }
      ],
      "name": "OwnershipTransferred",
      "type": "event"
    },
    {
      "anonymous": false,
      "inputs": [
        {
          "indexed": true,
          "internalType": "address",
          "name": "operator",
          "type": "address"
        },
        {
          "indexed": true,
          "internalType": "address",
          "name": "from",
          "type": "address"
        },
        {
          "indexed": true,
          "internalType": "address",
          "name": "to",
          "type": "address"
        },
        {
          "indexed": false,
          "internalType": "uint256[]",
          "name": "ids",
          "type": "uint256[]"
        },
        {
          "indexed": false,
          "internalType": "uint256[]",
          "name": "values",
          "type": "uint256[]"
        }
      ],
      "name": "TransferBatch",
      "type": "event"
    },
    {
      "anonymous": false,
      "inputs": [
        {
          "indexed": true,
          "internalType": "address",
          "name": "operator",
          "type": "address"
        },
        {
          "indexed": true,
          "internalType": "address",
          "name": "from",
          "type": "address"
        },
        {
          "indexed": true,
          "internalType": "address",
          "name": "to",
          "type": "address"
        },
        {
          "indexed": false,
          "internalType": "uint256",
          "name": "id",
          "type": "uint256"
        },
        {
          "indexed": false,
          "internalType": "uint256",
          "name": "value",
          "type": "uint256"
        }
      ],
      "name": "TransferSingle",
      "type": "event"
    },
    {
      "anonymous": false,
      "inputs": [
        {
          "indexed": false,
          "internalType": "string",
          "name": "value",
          "type": "string"
        },
        {
          "indexed": true,
          "internalType": "uint256",
          "name": "id",
          "type": "uint256"
        }
      ],
      "name": "URI",
      "type": "event"
    },
    {
      "inputs": [],
      "name": "MAX_SUPPLY",
      "outputs": [
        {
          "internalType": "uint256",
          "name": "",
          "type": "uint256"
        }
      ],
      "stateMutability": "view",
      "type": "function"
    },
    {
      "inputs": [],
      "name": "NAME",
      "outputs": [
        {
          "internalType": "string",
          "name": "",
          "type": "string"
        }
      ],
      "stateMutability": "view",
      "type": "function"
    },
    {
      "inputs": [],
      "name": "SYMBOL",
      "outputs": [
        {
          "internalType": "string",
          "name": "",
          "type": "string"
        }
      ],
      "stateMutability": "view",
      "type": "function"
    },
    {
      "inputs": [],
      "name": "VV_COMMUNITY_VAULT",
      "outputs": [
        {
          "internalType": "uint256",
          "name": "",
          "type": "uint256"
        }
      ],
      "stateMutability": "view",
      "type": "function"
    },
    {
      "inputs": [],
      "name": "VV_PER_MINT",
      "outputs": [
        {
          "internalType": "uint256",
          "name": "",
          "type": "uint256"
        }
      ],
      "stateMutability": "view",
      "type": "function"
    },
    {
      "inputs": [
        {
          "internalType": "address",
          "name": "account",
          "type": "address"
        },
        {
          "internalType": "uint256",
          "name": "id",
          "type": "uint256"
        }
      ],
      "name": "balanceOf",
      "outputs": [
        {
          "internalType": "uint256",
          "name": "",
          "type": "uint256"
        }
      ],
      "stateMutability": "view",
      "type": "function"
    },
    {
      "inputs": [
        {
          "internalType": "address[]",
          "name": "accounts",
          "type": "address[]"
        },
        {
          "internalType": "uint256[]",
          "name": "ids",
          "type": "uint256[]"
        }
      ],
      "name": "balanceOfBatch",
      "outputs": [
        {
          "internalType": "uint256[]",
          "name": "",
          "type": "uint256[]"
        }
      ],
      "stateMutability": "view",
      "type": "function"
    },
    {
      "inputs": [
        {
          "internalType": "address",
          "name": "account",
          "type": "address"
        },
        {
          "internalType": "uint256",
          "name": "id",
          "type": "uint256"
        },
        {
          "internalType": "uint256",
          "name": "value",
          "type": "uint256"
        }
      ],
      "name": "burn",
      "outputs": [],
      "stateMutability": "nonpayable",
      "type": "function"
    },
    {
      "inputs": [
        {
          "internalType": "address",
          "name": "account",
          "type": "address"
        },
        {
          "internalType": "uint256[]",
          "name": "ids",
          "type": "uint256[]"
        },
        {
          "internalType": "uint256[]",
          "name": "values",
          "type": "uint256[]"
        }
      ],
      "name": "burnBatch",
      "outputs": [],
      "stateMutability": "nonpayable",
      "type": "function"
    },
    {
      "inputs": [
        {
          "internalType": "uint256",
          "name": "tokenQuantity",
          "type": "uint256"
        }
      ],
      "name": "buy",
      "outputs": [],
      "stateMutability": "payable",
      "type": "function"
    },
    {
      "inputs": [
        {
          "internalType": "address",
          "name": "account",
          "type": "address"
        },
        {
          "internalType": "address",
          "name": "operator",
          "type": "address"
        }
      ],
      "name": "isApprovedForAll",
      "outputs": [
        {
          "internalType": "bool",
          "name": "",
          "type": "bool"
        }
      ],
      "stateMutability": "view",
      "type": "function"
    },
    {
      "inputs": [],
      "name": "lockMetadata",
      "outputs": [],
      "stateMutability": "nonpayable",
      "type": "function"
    },
    {
      "inputs": [],
      "name": "locked",
      "outputs": [
        {
          "internalType": "bool",
          "name": "",
          "type": "bool"
        }
      ],
      "stateMutability": "view",
      "type": "function"
    },
    {
      "inputs": [],
      "name": "mintCommunity",
      "outputs": [],
      "stateMutability": "nonpayable",
      "type": "function"
    },
    {
      "inputs": [],
      "name": "mintPrice",
      "outputs": [
        {
          "internalType": "uint256",
          "name": "",
          "type": "uint256"
        }
      ],
      "stateMutability": "view",
      "type": "function"
    },
    {
      "inputs": [],
      "name": "name",
      "outputs": [
        {
          "internalType": "string",
          "name": "",
          "type": "string"
        }
      ],
      "stateMutability": "pure",
      "type": "function"
    },
    {
      "inputs": [],
      "name": "owner",
      "outputs": [
        {
          "internalType": "address",
          "name": "",
          "type": "address"
        }
      ],
      "stateMutability": "view",
      "type": "function"
    },
    {
      "inputs": [],
      "name": "renounceOwnership",
      "outputs": [],
      "stateMutability": "nonpayable",
      "type": "function"
    },
    {
      "inputs": [
        {
          "internalType": "address",
          "name": "from",
          "type": "address"
        },
        {
          "internalType": "address",
          "name": "to",
          "type": "address"
        },
        {
          "internalType": "uint256[]",
          "name": "ids",
          "type": "uint256[]"
        },
        {
          "internalType": "uint256[]",
          "name": "amounts",
          "type": "uint256[]"
        },
        {
          "internalType": "bytes",
          "name": "data",
          "type": "bytes"
        }
      ],
      "name": "safeBatchTransferFrom",
      "outputs": [],
      "stateMutability": "nonpayable",
      "type": "function"
    },
    {
      "inputs": [
        {
          "internalType": "address",
          "name": "from",
          "type": "address"
        },
        {
          "internalType": "address",
          "name": "to",
          "type": "address"
        },
        {
          "internalType": "uint256",
          "name": "id",
          "type": "uint256"
        },
        {
          "internalType": "uint256",
          "name": "amount",
          "type": "uint256"
        },
        {
          "internalType": "bytes",
          "name": "data",
          "type": "bytes"
        }
      ],
      "name": "safeTransferFrom",
      "outputs": [],
      "stateMutability": "nonpayable",
      "type": "function"
    },
    {
      "inputs": [],
      "name": "saleLive",
      "outputs": [
        {
          "internalType": "bool",
          "name": "",
          "type": "bool"
        }
      ],
      "stateMutability": "view",
      "type": "function"
    },
    {
      "inputs": [
        {
          "internalType": "address",
          "name": "operator",
          "type": "address"
        },
        {
          "internalType": "bool",
          "name": "approved",
          "type": "bool"
        }
      ],
      "name": "setApprovalForAll",
      "outputs": [],
      "stateMutability": "nonpayable",
      "type": "function"
    },
    {
      "inputs": [
        {
          "internalType": "string",
          "name": "_baseURI",
          "type": "string"
        }
      ],
      "name": "setBaseUri",
      "outputs": [],
      "stateMutability": "nonpayable",
      "type": "function"
    },
    {
      "inputs": [
        {
          "internalType": "bytes4",
          "name": "interfaceId",
          "type": "bytes4"
        }
      ],
      "name": "supportsInterface",
      "outputs": [
        {
          "internalType": "bool",
          "name": "",
          "type": "bool"
        }
      ],
      "stateMutability": "view",
      "type": "function"
    },
    {
      "inputs": [],
      "name": "symbol",
      "outputs": [
        {
          "internalType": "string",
          "name": "",
          "type": "string"
        }
      ],
      "stateMutability": "pure",
      "type": "function"
    },
    {
      "inputs": [],
      "name": "toggleSaleStatus",
      "outputs": [],
      "stateMutability": "nonpayable",
      "type": "function"
    },
    {
      "inputs": [],
      "name": "tokenIdToMint",
      "outputs": [
        {
          "internalType": "uint256",
          "name": "",
          "type": "uint256"
        }
      ],
      "stateMutability": "view",
      "type": "function"
    },
    {
      "inputs": [],
      "name": "totalSupply",
      "outputs": [
        {
          "internalType": "uint256",
          "name": "",
          "type": "uint256"
        }
      ],
      "stateMutability": "view",
      "type": "function"
    },
    {
      "inputs": [
        {
          "internalType": "address",
          "name": "newOwner",
          "type": "address"
        }
      ],
      "name": "transferOwnership",
      "outputs": [],
      "stateMutability": "nonpayable",
      "type": "function"
    },
    {
      "inputs": [
        {
          "internalType": "uint256",
          "name": "id",
          "type": "uint256"
        }
      ],
      "name": "uri",
      "outputs": [
        {
          "internalType": "string",
          "name": "",
          "type": "string"
        }
      ],
      "stateMutability": "view",
      "type": "function"
    },
    {
      "inputs": [],
      "name": "withdraw",
      "outputs": [],
      "stateMutability": "nonpayable",
      "type": "function"
    }
  ],
  "bytecode": "0x6080604052600680546001600160a01b031916730b42487db1c12f4ca02e399dcfb9a5b013f36914179055600780546001600160b01b03191673d9861771c138d57f74a14ed066c9d9d435df4b5d1790553480156200005d57600080fd5b50604051620029db380380620029db8339810160408190526200008091620001dc565b806200008c81620000b5565b506200009833620000ce565b8051620000ad90600590602084019062000120565b5050620002f5565b8051620000ca90600290602084019062000120565b5050565b600380546001600160a01b038381166001600160a01b0319831681179093556040519116919082907f8be0079c531659141344cd1fd0a4f28419497f9722a3daafe3b4186f6b6457e090600090a35050565b8280546200012e90620002b8565b90600052602060002090601f0160209004810192826200015257600085556200019d565b82601f106200016d57805160ff19168380011785556200019d565b828001600101855582156200019d579182015b828111156200019d57825182559160200191906001019062000180565b50620001ab929150620001af565b5090565b5b80821115620001ab5760008155600101620001b0565b634e487b7160e01b600052604160045260246000fd5b60006020808385031215620001f057600080fd5b82516001600160401b03808211156200020857600080fd5b818501915085601f8301126200021d57600080fd5b815181811115620002325762000232620001c6565b604051601f8201601f19908116603f011681019083821181831017156200025d576200025d620001c6565b8160405282815288868487010111156200027657600080fd5b600093505b828410156200029a57848401860151818501870152928501926200027b565b82841115620002ac5760008684830101525b98975050505050505050565b600181811c90821680620002cd57607f821691505b60208210811415620002ef57634e487b7160e01b600052602260045260246000fd5b50919050565b6126d680620003056000396000f3fe6080604052600436106101d75760003560e01c80638da5cb5b11610102578063cf30901211610095578063f242432a11610064578063f242432a1461057f578063f2fde38b1461059f578063f5298aca146105bf578063f76f8d78146105df57600080fd5b8063cf309012146104e1578063d96a094a14610502578063e081b78114610515578063e985e9c51461053657600080fd5b8063a0bcfc7f116100d1578063a0bcfc7f14610448578063a22cb46514610468578063a3f4df7e14610488578063b186c88b146104cc57600080fd5b80638da5cb5b146103c757806395d89b41146103ef578063989bdbb61461041e5780639c77eead1461043357600080fd5b806332cb6b0c1161017a57806363dd574f1161014957806363dd574f146103625780636817c76c146103775780636b20c45414610392578063715018a6146103b257600080fd5b806332cb6b0c146102f55780633ccfd60b1461030b5780634e1273f4146103205780635c5290d41461034d57600080fd5b806306fdde03116101b657806306fdde03146102565780630e89341c146102a057806318160ddd146102c05780632eb2c2d6146102d557600080fd5b8062fdd58e146101dc57806301ffc9a71461020f578063049c5c491461023f575b600080fd5b3480156101e857600080fd5b506101fc6101f7366004611b1d565b610611565b6040519081526020015b60405180910390f35b34801561021b57600080fd5b5061022f61022a366004611b5d565b6106a8565b6040519015158152602001610206565b34801561024b57600080fd5b506102546106fa565b005b34801561026257600080fd5b50604080518082019091526018815277564f4f444f4f205641554c542042524f4b454e205041535360401b60208201525b6040516102069190611bdd565b3480156102ac57600080fd5b506102936102bb366004611bf0565b610745565b3480156102cc57600080fd5b506004546101fc565b3480156102e157600080fd5b506102546102f0366004611d55565b610811565b34801561030157600080fd5b506101fc6115b381565b34801561031757600080fd5b506102546108a8565b34801561032c57600080fd5b5061034061033b366004611dff565b610975565b6040516102069190611f05565b34801561035957600080fd5b506101fc606481565b34801561036e57600080fd5b506101fc600a81565b34801561038357600080fd5b506101fc668700cc7577000081565b34801561039e57600080fd5b506102546103ad366004611f18565b610a9f565b3480156103be57600080fd5b50610254610ae7565b3480156103d357600080fd5b506003546040516001600160a01b039091168152602001610206565b3480156103fb57600080fd5b506040805180820190915260068152652b2b212925a760d11b6020820152610293565b34801561042a57600080fd5b50610254610b1d565b34801561043f57600080fd5b50610254610b5c565b34801561045457600080fd5b50610254610463366004611f8c565b610c11565b34801561047457600080fd5b50610254610483366004611ffe565b610ca1565b34801561049457600080fd5b5061029360405180604001604052806018815260200177564f4f444f4f205641554c542042524f4b454e205041535360401b81525081565b3480156104d857600080fd5b506101fc600081565b3480156104ed57600080fd5b5060075461022f90600160a81b900460ff1681565b610254610510366004611bf0565b610cac565b34801561052157600080fd5b5060075461022f90600160a01b900460ff1681565b34801561054257600080fd5b5061022f61055136600461203a565b6001600160a01b03918216600090815260016020908152604080832093909416825291909152205460ff1690565b34801561058b57600080fd5b5061025461059a36600461206d565b610e4e565b3480156105ab57600080fd5b506102546105ba3660046120d2565b610e93565b3480156105cb57600080fd5b506102546105da3660046120ed565b610f2b565b3480156105eb57600080fd5b50610293604051806040016040528060068152602001652b2b212925a760d11b81525081565b60006001600160a01b0383166106825760405162461bcd60e51b815260206004820152602b60248201527f455243313135353a2062616c616e636520717565727920666f7220746865207a60448201526a65726f206164647265737360a81b60648201526084015b60405180910390fd5b506000908152602081815260408083206001600160a01b03949094168352929052205490565b60006001600160e01b03198216636cdb3d1360e11b14806106d957506001600160e01b031982166303a24d0760e21b145b806106f457506301ffc9a760e01b6001600160e01b03198316145b92915050565b6003546001600160a01b031633146107245760405162461bcd60e51b815260040161067990612120565b6007805460ff60a01b198116600160a01b9182900460ff1615909102179055565b606060006005805461075690612155565b9050116107985760405162461bcd60e51b815260206004820152601060248201526f109054d148155492481393d50814d15560821b6044820152606401610679565b81156107df5760405162461bcd60e51b81526020600482015260166024820152752aa9249d103737b732bc34b9ba32b73a103a37b5b2b760511b6044820152606401610679565b60056107ea83610f6e565b6040516020016107fb9291906121ac565b6040516020818303038152906040529050919050565b6001600160a01b03851633148061082d575061082d8533610551565b6108945760405162461bcd60e51b815260206004820152603260248201527f455243313135353a207472616e736665722063616c6c6572206973206e6f74206044820152711bdddb995c881b9bdc88185c1c1c9bdd995960721b6064820152608401610679565b6108a18585858585611074565b5050505050565b6003546001600160a01b031633146108d25760405162461bcd60e51b815260040161067990612120565b60075447906001600160a01b03166108fc60646108f0846011612269565b6108fa919061229e565b6040518115909202916000818181858888f19350505050158015610922573d6000803e3d6000fd5b506006546001600160a01b03166108fc606461093f846053612269565b610949919061229e565b6040518115909202916000818181858888f19350505050158015610971573d6000803e3d6000fd5b5050565b606081518351146109da5760405162461bcd60e51b815260206004820152602960248201527f455243313135353a206163636f756e747320616e6420696473206c656e677468604482015268040dad2e6dac2e8c6d60bb1b6064820152608401610679565b6000835167ffffffffffffffff8111156109f6576109f6611c09565b604051908082528060200260200182016040528015610a1f578160200160208202803683370190505b50905060005b8451811015610a9757610a6a858281518110610a4357610a436122b2565b6020026020010151858381518110610a5d57610a5d6122b2565b6020026020010151610611565b828281518110610a7c57610a7c6122b2565b6020908102919091010152610a90816122c8565b9050610a25565b509392505050565b6001600160a01b038316331480610abb5750610abb8333610551565b610ad75760405162461bcd60e51b8152600401610679906122e3565b610ae2838383611210565b505050565b6003546001600160a01b03163314610b115760405162461bcd60e51b815260040161067990612120565b610b1b600061138c565b565b6003546001600160a01b03163314610b475760405162461bcd60e51b815260040161067990612120565b6007805460ff60a81b1916600160a81b179055565b6003546001600160a01b03163314610b865760405162461bcd60e51b815260040161067990612120565b6115b36064600454610b98919061232c565b1115610bda5760405162461bcd60e51b815260206004820152601160248201527013505617d352539517d050d21251559151607a1b6044820152606401610679565b606460046000828254610bed919061232c565b92505081905550610b1b3360006064604051806020016040528060008152506113de565b6003546001600160a01b03163314610c3b5760405162461bcd60e51b815260040161067990612120565b600754600160a81b900460ff1615610c955760405162461bcd60e51b815260206004820152601b60248201527f436f6e7472616374206d65746164617461206973206c6f636b656400000000006044820152606401610679565b610ae260058383611a68565b6109713383836114e8565b600754600160a01b900460ff16610cf35760405162461bcd60e51b815260206004820152600b60248201526a14d053114810d313d4d15160aa1b6044820152606401610679565b600081118015610d045750600a8111155b610d645760405162461bcd60e51b815260206004820152602b60248201527f4d494e54204154204c45415354203120414e44204e4f54204d4f52452054484160448201526a4e20313020544f4b454e5360a81b6064820152608401610679565b6115b381600454610d75919061232c565b1115610db75760405162461bcd60e51b815260206004820152601160248201527013505617d352539517d050d21251559151607a1b6044820152606401610679565b34610dc982668700cc75770000612269565b14610e165760405162461bcd60e51b815260206004820152601960248201527f494e434f5252454354205041594d454e5420414d4f554e5420000000000000006044820152606401610679565b8060046000828254610e28919061232c565b92505081905550610e4b33600083604051806020016040528060008152506113de565b50565b6001600160a01b038516331480610e6a5750610e6a8533610551565b610e865760405162461bcd60e51b8152600401610679906122e3565b6108a185858585856115c9565b6003546001600160a01b03163314610ebd5760405162461bcd60e51b815260040161067990612120565b6001600160a01b038116610f225760405162461bcd60e51b815260206004820152602660248201527f4f776e61626c653a206e6577206f776e657220697320746865207a65726f206160448201526564647265737360d01b6064820152608401610679565b610e4b8161138c565b6001600160a01b038316331480610f475750610f478333610551565b610f635760405162461bcd60e51b8152600401610679906122e3565b610ae28383836116e6565b606081610f925750506040805180820190915260018152600360fc1b602082015290565b8160005b8115610fbc5780610fa6816122c8565b9150610fb59050600a8361229e565b9150610f96565b60008167ffffffffffffffff811115610fd757610fd7611c09565b6040519080825280601f01601f191660200182016040528015611001576020820181803683370190505b5090505b841561106c57611016600183612344565b9150611023600a8661235b565b61102e90603061232c565b60f81b818381518110611043576110436122b2565b60200101906001600160f81b031916908160001a905350611065600a8661229e565b9450611005565b949350505050565b81518351146110955760405162461bcd60e51b81526004016106799061236f565b6001600160a01b0384166110bb5760405162461bcd60e51b8152600401610679906123b7565b3360005b84518110156111a25760008582815181106110dc576110dc6122b2565b6020026020010151905060008583815181106110fa576110fa6122b2565b602090810291909101810151600084815280835260408082206001600160a01b038e16835290935291909120549091508181101561114a5760405162461bcd60e51b8152600401610679906123fc565b6000838152602081815260408083206001600160a01b038e8116855292528083208585039055908b1682528120805484929061118790849061232c565b925050819055505050508061119b906122c8565b90506110bf565b50846001600160a01b0316866001600160a01b0316826001600160a01b03167f4a39dc06d4c0dbc64b70af90fd698a233a518aa5d07e595d983b8c0526c8f7fb87876040516111f2929190612446565b60405180910390a46112088187878787876117e8565b505050505050565b6001600160a01b0383166112365760405162461bcd60e51b81526004016106799061246b565b80518251146112575760405162461bcd60e51b81526004016106799061236f565b604080516020810190915260009081905233905b835181101561132d576000848281518110611288576112886122b2565b6020026020010151905060008483815181106112a6576112a66122b2565b602090810291909101810151600084815280835260408082206001600160a01b038c1683529093529190912054909150818110156112f65760405162461bcd60e51b8152600401610679906124ae565b6000928352602083815260408085206001600160a01b038b1686529091529092209103905580611325816122c8565b91505061126b565b5060006001600160a01b0316846001600160a01b0316826001600160a01b03167f4a39dc06d4c0dbc64b70af90fd698a233a518aa5d07e595d983b8c0526c8f7fb868660405161137e929190612446565b60405180910390a450505050565b600380546001600160a01b038381166001600160a01b0319831681179093556040519116919082907f8be0079c531659141344cd1fd0a4f28419497f9722a3daafe3b4186f6b6457e090600090a35050565b6001600160a01b03841661143e5760405162461bcd60e51b815260206004820152602160248201527f455243313135353a206d696e7420746f20746865207a65726f206164647265736044820152607360f81b6064820152608401610679565b336114588160008761144f88611953565b6108a188611953565b6000848152602081815260408083206001600160a01b03891684529091528120805485929061148890849061232c565b909155505060408051858152602081018590526001600160a01b0380881692600092918516917fc3d58168c5ae7397731d063d5bbf3d657854427343f4c083240f7aacaa2d0f62910160405180910390a46108a18160008787878761199e565b816001600160a01b0316836001600160a01b0316141561155c5760405162461bcd60e51b815260206004820152602960248201527f455243313135353a2073657474696e6720617070726f76616c20737461747573604482015268103337b91039b2b63360b91b6064820152608401610679565b6001600160a01b03838116600081815260016020908152604080832094871680845294825291829020805460ff191686151590811790915591519182527f17307eab39ab6107e8899845ad3d59bd9653f200f220920489ca2b5937696c31910160405180910390a3505050565b6001600160a01b0384166115ef5760405162461bcd60e51b8152600401610679906123b7565b336115ff81878761144f88611953565b6000848152602081815260408083206001600160a01b038a168452909152902054838110156116405760405162461bcd60e51b8152600401610679906123fc565b6000858152602081815260408083206001600160a01b038b811685529252808320878503905590881682528120805486929061167d90849061232c565b909155505060408051868152602081018690526001600160a01b03808916928a821692918616917fc3d58168c5ae7397731d063d5bbf3d657854427343f4c083240f7aacaa2d0f62910160405180910390a46116dd82888888888861199e565b50505050505050565b6001600160a01b03831661170c5760405162461bcd60e51b81526004016106799061246b565b3361173c8185600061171d87611953565b61172687611953565b5050604080516020810190915260009052505050565b6000838152602081815260408083206001600160a01b03881684529091529020548281101561177d5760405162461bcd60e51b8152600401610679906124ae565b6000848152602081815260408083206001600160a01b03898116808652918452828520888703905582518981529384018890529092908616917fc3d58168c5ae7397731d063d5bbf3d657854427343f4c083240f7aacaa2d0f62910160405180910390a45050505050565b6001600160a01b0384163b156112085760405163bc197c8160e01b81526001600160a01b0385169063bc197c819061182c90899089908890889088906004016124f2565b602060405180830381600087803b15801561184657600080fd5b505af1925050508015611876575060408051601f3d908101601f1916820190925261187391810190612550565b60015b6119235761188261256d565b806308c379a014156118bc5750611897612589565b806118a257506118be565b8060405162461bcd60e51b81526004016106799190611bdd565b505b60405162461bcd60e51b815260206004820152603460248201527f455243313135353a207472616e7366657220746f206e6f6e20455243313135356044820152732932b1b2b4bb32b91034b6b83632b6b2b73a32b960611b6064820152608401610679565b6001600160e01b0319811663bc197c8160e01b146116dd5760405162461bcd60e51b815260040161067990612613565b6040805160018082528183019092526060916000919060208083019080368337019050509050828160008151811061198d5761198d6122b2565b602090810291909101015292915050565b6001600160a01b0384163b156112085760405163f23a6e6160e01b81526001600160a01b0385169063f23a6e61906119e2908990899088908890889060040161265b565b602060405180830381600087803b1580156119fc57600080fd5b505af1925050508015611a2c575060408051601f3d908101601f19168201909252611a2991810190612550565b60015b611a385761188261256d565b6001600160e01b0319811663f23a6e6160e01b146116dd5760405162461bcd60e51b815260040161067990612613565b828054611a7490612155565b90600052602060002090601f016020900481019282611a965760008555611adc565b82601f10611aaf5782800160ff19823516178555611adc565b82800160010185558215611adc579182015b82811115611adc578235825591602001919060010190611ac1565b50611ae8929150611aec565b5090565b5b80821115611ae85760008155600101611aed565b80356001600160a01b0381168114611b1857600080fd5b919050565b60008060408385031215611b3057600080fd5b611b3983611b01565b946020939093013593505050565b6001600160e01b031981168114610e4b57600080fd5b600060208284031215611b6f57600080fd5b8135611b7a81611b47565b9392505050565b60005b83811015611b9c578181015183820152602001611b84565b83811115611bab576000848401525b50505050565b60008151808452611bc9816020860160208601611b81565b601f01601f19169290920160200192915050565b602081526000611b7a6020830184611bb1565b600060208284031215611c0257600080fd5b5035919050565b634e487b7160e01b600052604160045260246000fd5b601f8201601f1916810167ffffffffffffffff81118282101715611c4557611c45611c09565b6040525050565b600067ffffffffffffffff821115611c6657611c66611c09565b5060051b60200190565b600082601f830112611c8157600080fd5b81356020611c8e82611c4c565b604051611c9b8282611c1f565b83815260059390931b8501820192828101915086841115611cbb57600080fd5b8286015b84811015611cd65780358352918301918301611cbf565b509695505050505050565b600082601f830112611cf257600080fd5b813567ffffffffffffffff811115611d0c57611d0c611c09565b604051611d23601f8301601f191660200182611c1f565b818152846020838601011115611d3857600080fd5b816020850160208301376000918101602001919091529392505050565b600080600080600060a08688031215611d6d57600080fd5b611d7686611b01565b9450611d8460208701611b01565b9350604086013567ffffffffffffffff80821115611da157600080fd5b611dad89838a01611c70565b94506060880135915080821115611dc357600080fd5b611dcf89838a01611c70565b93506080880135915080821115611de557600080fd5b50611df288828901611ce1565b9150509295509295909350565b60008060408385031215611e1257600080fd5b823567ffffffffffffffff80821115611e2a57600080fd5b818501915085601f830112611e3e57600080fd5b81356020611e4b82611c4c565b604051611e588282611c1f565b83815260059390931b8501820192828101915089841115611e7857600080fd5b948201945b83861015611e9d57611e8e86611b01565b82529482019490820190611e7d565b96505086013592505080821115611eb357600080fd5b50611ec085828601611c70565b9150509250929050565b600081518084526020808501945080840160005b83811015611efa57815187529582019590820190600101611ede565b509495945050505050565b602081526000611b7a6020830184611eca565b600080600060608486031215611f2d57600080fd5b611f3684611b01565b9250602084013567ffffffffffffffff80821115611f5357600080fd5b611f5f87838801611c70565b93506040860135915080821115611f7557600080fd5b50611f8286828701611c70565b9150509250925092565b60008060208385031215611f9f57600080fd5b823567ffffffffffffffff80821115611fb757600080fd5b818501915085601f830112611fcb57600080fd5b813581811115611fda57600080fd5b866020828501011115611fec57600080fd5b60209290920196919550909350505050565b6000806040838503121561201157600080fd5b61201a83611b01565b91506020830135801515811461202f57600080fd5b809150509250929050565b6000806040838503121561204d57600080fd5b61205683611b01565b915061206460208401611b01565b90509250929050565b600080600080600060a0868803121561208557600080fd5b61208e86611b01565b945061209c60208701611b01565b93506040860135925060608601359150608086013567ffffffffffffffff8111156120c657600080fd5b611df288828901611ce1565b6000602082840312156120e457600080fd5b611b7a82611b01565b60008060006060848603121561210257600080fd5b61210b84611b01565b95602085013595506040909401359392505050565b6020808252818101527f4f776e61626c653a2063616c6c6572206973206e6f7420746865206f776e6572604082015260600190565b600181811c9082168061216957607f821691505b6020821081141561218a57634e487b7160e01b600052602260045260246000fd5b50919050565b600081516121a2818560208601611b81565b9290920192915050565b600080845481600182811c9150808316806121c857607f831692505b60208084108214156121e857634e487b7160e01b86526022600452602486fd5b8180156121fc576001811461220d5761223a565b60ff1986168952848901965061223a565b60008b81526020902060005b868110156122325781548b820152908501908301612219565b505084890196505b50505050505061224a8185612190565b95945050505050565b634e487b7160e01b600052601160045260246000fd5b600081600019048311821515161561228357612283612253565b500290565b634e487b7160e01b600052601260045260246000fd5b6000826122ad576122ad612288565b500490565b634e487b7160e01b600052603260045260246000fd5b60006000198214156122dc576122dc612253565b5060010190565b60208082526029908201527f455243313135353a2063616c6c6572206973206e6f74206f776e6572206e6f7260408201526808185c1c1c9bdd995960ba1b606082015260800190565b6000821982111561233f5761233f612253565b500190565b60008282101561235657612356612253565b500390565b60008261236a5761236a612288565b500690565b60208082526028908201527f455243313135353a2069647320616e6420616d6f756e7473206c656e677468206040820152670dad2e6dac2e8c6d60c31b606082015260800190565b60208082526025908201527f455243313135353a207472616e7366657220746f20746865207a65726f206164604082015264647265737360d81b606082015260800190565b6020808252602a908201527f455243313135353a20696e73756666696369656e742062616c616e636520666f60408201526939103a3930b739b332b960b11b606082015260800190565b6040815260006124596040830185611eca565b828103602084015261224a8185611eca565b60208082526023908201527f455243313135353a206275726e2066726f6d20746865207a65726f206164647260408201526265737360e81b606082015260800190565b60208082526024908201527f455243313135353a206275726e20616d6f756e7420657863656564732062616c604082015263616e636560e01b606082015260800190565b6001600160a01b0386811682528516602082015260a06040820181905260009061251e90830186611eca565b82810360608401526125308186611eca565b905082810360808401526125448185611bb1565b98975050505050505050565b60006020828403121561256257600080fd5b8151611b7a81611b47565b600060033d11156125865760046000803e5060005160e01c5b90565b600060443d10156125975790565b6040516003193d81016004833e81513d67ffffffffffffffff81602484011181841117156125c757505050505090565b82850191508151818111156125df5750505050505090565b843d87010160208285010111156125f95750505050505090565b61260860208286010187611c1f565b509095945050505050565b60208082526028908201527f455243313135353a204552433131353552656365697665722072656a656374656040820152676420746f6b656e7360c01b606082015260800190565b6001600160a01b03868116825285166020820152604081018490526060810183905260a06080820181905260009061269590830184611bb1565b97965050505050505056fea2646970667358221220a78bedde85b26b225a0f01570536fac2ef1077f4c4ffbee194e68227a96db38764736f6c63430008090033",
  "linkReferences": {},
  "deployedLinkReferences": {}
}