{
  "_format": "hh-sol-artifact-1",
  "contractName": "VoodooVault",
  "sourceName": "contracts/voodooContractNormal.sol",
  "abi": [
    {
      "inputs": [
        {
          "internalType": "string",
          "name": "_baseURI",
          "type": "string"
        }
      ],
      "stateMutability": "nonpayable",
      "type": "constructor"
    },
    {
      "anonymous": false,
      "inputs": [
        {
          "indexed": true,
          "internalType": "address",
          "name": "account",
          "type": "address"
        },
        {
          "indexed": true,
          "internalType": "address",
          "name": "operator",
          "type": "address"
        },
        {
          "indexed": false,
          "internalType": "bool",
          "name": "approved",
          "type": "bool"
        }
      ],
      "name": "ApprovalForAll",
      "type": "event"
    },
    {
      "anonymous": false,
      "inputs": [
        {
          "indexed": true,
          "internalType": "address",
          "name": "previousOwner",
          "type": "address"
        },
        {
          "indexed": true,
          "internalType": "address",
          "name": "newOwner",
          "type": "address"
        }
      ],
      "name": "OwnershipTransferred",
      "type": "event"
    },
    {
      "anonymous": false,
      "inputs": [
        {
          "indexed": true,
          "internalType": "address",
          "name": "operator",
          "type": "address"
        },
        {
          "indexed": true,
          "internalType": "address",
          "name": "from",
          "type": "address"
        },
        {
          "indexed": true,
          "internalType": "address",
          "name": "to",
          "type": "address"
        },
        {
          "indexed": false,
          "internalType": "uint256[]",
          "name": "ids",
          "type": "uint256[]"
        },
        {
          "indexed": false,
          "internalType": "uint256[]",
          "name": "values",
          "type": "uint256[]"
        }
      ],
      "name": "TransferBatch",
      "type": "event"
    },
    {
      "anonymous": false,
      "inputs": [
        {
          "indexed": true,
          "internalType": "address",
          "name": "operator",
          "type": "address"
        },
        {
          "indexed": true,
          "internalType": "address",
          "name": "from",
          "type": "address"
        },
        {
          "indexed": true,
          "internalType": "address",
          "name": "to",
          "type": "address"
        },
        {
          "indexed": false,
          "internalType": "uint256",
          "name": "id",
          "type": "uint256"
        },
        {
          "indexed": false,
          "internalType": "uint256",
          "name": "value",
          "type": "uint256"
        }
      ],
      "name": "TransferSingle",
      "type": "event"
    },
    {
      "anonymous": false,
      "inputs": [
        {
          "indexed": false,
          "internalType": "string",
          "name": "value",
          "type": "string"
        },
        {
          "indexed": true,
          "internalType": "uint256",
          "name": "id",
          "type": "uint256"
        }
      ],
      "name": "URI",
      "type": "event"
    },
    {
      "inputs": [],
      "name": "MAX_SUPPLY",
      "outputs": [
        {
          "internalType": "uint256",
          "name": "",
          "type": "uint256"
        }
      ],
      "stateMutability": "view",
      "type": "function"
    },
    {
      "inputs": [],
      "name": "NAME",
      "outputs": [
        {
          "internalType": "string",
          "name": "",
          "type": "string"
        }
      ],
      "stateMutability": "view",
      "type": "function"
    },
    {
      "inputs": [],
      "name": "SYMBOL",
      "outputs": [
        {
          "internalType": "string",
          "name": "",
          "type": "string"
        }
      ],
      "stateMutability": "view",
      "type": "function"
    },
    {
      "inputs": [],
      "name": "VV_COMMUNITY_VAULT",
      "outputs": [
        {
          "internalType": "uint256",
          "name": "",
          "type": "uint256"
        }
      ],
      "stateMutability": "view",
      "type": "function"
    },
    {
      "inputs": [],
      "name": "VV_PER_MINT",
      "outputs": [
        {
          "internalType": "uint256",
          "name": "",
          "type": "uint256"
        }
      ],
      "stateMutability": "view",
      "type": "function"
    },
    {
      "inputs": [
        {
          "internalType": "address",
          "name": "account",
          "type": "address"
        },
        {
          "internalType": "uint256",
          "name": "id",
          "type": "uint256"
        }
      ],
      "name": "balanceOf",
      "outputs": [
        {
          "internalType": "uint256",
          "name": "",
          "type": "uint256"
        }
      ],
      "stateMutability": "view",
      "type": "function"
    },
    {
      "inputs": [
        {
          "internalType": "address[]",
          "name": "accounts",
          "type": "address[]"
        },
        {
          "internalType": "uint256[]",
          "name": "ids",
          "type": "uint256[]"
        }
      ],
      "name": "balanceOfBatch",
      "outputs": [
        {
          "internalType": "uint256[]",
          "name": "",
          "type": "uint256[]"
        }
      ],
      "stateMutability": "view",
      "type": "function"
    },
    {
      "inputs": [
        {
          "internalType": "address",
          "name": "account",
          "type": "address"
        },
        {
          "internalType": "uint256",
          "name": "id",
          "type": "uint256"
        },
        {
          "internalType": "uint256",
          "name": "value",
          "type": "uint256"
        }
      ],
      "name": "burn",
      "outputs": [],
      "stateMutability": "nonpayable",
      "type": "function"
    },
    {
      "inputs": [
        {
          "internalType": "address",
          "name": "account",
          "type": "address"
        },
        {
          "internalType": "uint256[]",
          "name": "ids",
          "type": "uint256[]"
        },
        {
          "internalType": "uint256[]",
          "name": "values",
          "type": "uint256[]"
        }
      ],
      "name": "burnBatch",
      "outputs": [],
      "stateMutability": "nonpayable",
      "type": "function"
    },
    {
      "inputs": [
        {
          "internalType": "uint256",
          "name": "tokenQuantity",
          "type": "uint256"
        }
      ],
      "name": "buy",
      "outputs": [],
      "stateMutability": "payable",
      "type": "function"
    },
    {
      "inputs": [
        {
          "internalType": "address",
          "name": "account",
          "type": "address"
        },
        {
          "internalType": "address",
          "name": "operator",
          "type": "address"
        }
      ],
      "name": "isApprovedForAll",
      "outputs": [
        {
          "internalType": "bool",
          "name": "",
          "type": "bool"
        }
      ],
      "stateMutability": "view",
      "type": "function"
    },
    {
      "inputs": [],
      "name": "lockMetadata",
      "outputs": [],
      "stateMutability": "nonpayable",
      "type": "function"
    },
    {
      "inputs": [],
      "name": "locked",
      "outputs": [
        {
          "internalType": "bool",
          "name": "",
          "type": "bool"
        }
      ],
      "stateMutability": "view",
      "type": "function"
    },
    {
      "inputs": [],
      "name": "mintCommunity",
      "outputs": [],
      "stateMutability": "nonpayable",
      "type": "function"
    },
    {
      "inputs": [],
      "name": "mintPrice",
      "outputs": [
        {
          "internalType": "uint256",
          "name": "",
          "type": "uint256"
        }
      ],
      "stateMutability": "view",
      "type": "function"
    },
    {
      "inputs": [],
      "name": "name",
      "outputs": [
        {
          "internalType": "string",
          "name": "",
          "type": "string"
        }
      ],
      "stateMutability": "pure",
      "type": "function"
    },
    {
      "inputs": [],
      "name": "owner",
      "outputs": [
        {
          "internalType": "address",
          "name": "",
          "type": "address"
        }
      ],
      "stateMutability": "view",
      "type": "function"
    },
    {
      "inputs": [],
      "name": "renounceOwnership",
      "outputs": [],
      "stateMutability": "nonpayable",
      "type": "function"
    },
    {
      "inputs": [
        {
          "internalType": "address",
          "name": "from",
          "type": "address"
        },
        {
          "internalType": "address",
          "name": "to",
          "type": "address"
        },
        {
          "internalType": "uint256[]",
          "name": "ids",
          "type": "uint256[]"
        },
        {
          "internalType": "uint256[]",
          "name": "amounts",
          "type": "uint256[]"
        },
        {
          "internalType": "bytes",
          "name": "data",
          "type": "bytes"
        }
      ],
      "name": "safeBatchTransferFrom",
      "outputs": [],
      "stateMutability": "nonpayable",
      "type": "function"
    },
    {
      "inputs": [
        {
          "internalType": "address",
          "name": "from",
          "type": "address"
        },
        {
          "internalType": "address",
          "name": "to",
          "type": "address"
        },
        {
          "internalType": "uint256",
          "name": "id",
          "type": "uint256"
        },
        {
          "internalType": "uint256",
          "name": "amount",
          "type": "uint256"
        },
        {
          "internalType": "bytes",
          "name": "data",
          "type": "bytes"
        }
      ],
      "name": "safeTransferFrom",
      "outputs": [],
      "stateMutability": "nonpayable",
      "type": "function"
    },
    {
      "inputs": [],
      "name": "saleLive",
      "outputs": [
        {
          "internalType": "bool",
          "name": "",
          "type": "bool"
        }
      ],
      "stateMutability": "view",
      "type": "function"
    },
    {
      "inputs": [
        {
          "internalType": "address",
          "name": "",
          "type": "address"
        }
      ],
      "name": "salePurchasesOfWallet",
      "outputs": [
        {
          "internalType": "uint256",
          "name": "",
          "type": "uint256"
        }
      ],
      "stateMutability": "view",
      "type": "function"
    },
    {
      "inputs": [
        {
          "internalType": "address",
          "name": "operator",
          "type": "address"
        },
        {
          "internalType": "bool",
          "name": "approved",
          "type": "bool"
        }
      ],
      "name": "setApprovalForAll",
      "outputs": [],
      "stateMutability": "nonpayable",
      "type": "function"
    },
    {
      "inputs": [
        {
          "internalType": "string",
          "name": "_baseURI",
          "type": "string"
        }
      ],
      "name": "setBaseUri",
      "outputs": [],
      "stateMutability": "nonpayable",
      "type": "function"
    },
    {
      "inputs": [
        {
          "internalType": "bytes4",
          "name": "interfaceId",
          "type": "bytes4"
        }
      ],
      "name": "supportsInterface",
      "outputs": [
        {
          "internalType": "bool",
          "name": "",
          "type": "bool"
        }
      ],
      "stateMutability": "view",
      "type": "function"
    },
    {
      "inputs": [],
      "name": "symbol",
      "outputs": [
        {
          "internalType": "string",
          "name": "",
          "type": "string"
        }
      ],
      "stateMutability": "pure",
      "type": "function"
    },
    {
      "inputs": [],
      "name": "toggleSaleStatus",
      "outputs": [],
      "stateMutability": "nonpayable",
      "type": "function"
    },
    {
      "inputs": [],
      "name": "tokenIdToMint",
      "outputs": [
        {
          "internalType": "uint256",
          "name": "",
          "type": "uint256"
        }
      ],
      "stateMutability": "view",
      "type": "function"
    },
    {
      "inputs": [],
      "name": "totalSupply",
      "outputs": [
        {
          "internalType": "uint256",
          "name": "",
          "type": "uint256"
        }
      ],
      "stateMutability": "view",
      "type": "function"
    },
    {
      "inputs": [
        {
          "internalType": "address",
          "name": "newOwner",
          "type": "address"
        }
      ],
      "name": "transferOwnership",
      "outputs": [],
      "stateMutability": "nonpayable",
      "type": "function"
    },
    {
      "inputs": [
        {
          "internalType": "uint256",
          "name": "id",
          "type": "uint256"
        }
      ],
      "name": "uri",
      "outputs": [
        {
          "internalType": "string",
          "name": "",
          "type": "string"
        }
      ],
      "stateMutability": "view",
      "type": "function"
    },
    {
      "inputs": [],
      "name": "withdraw",
      "outputs": [],
      "stateMutability": "nonpayable",
      "type": "function"
    }
  ],
  "bytecode": "0x608060405273a8e5a5ad2e6cd7d350407a887f8005fdcef31e3d600660006101000a81548173ffffffffffffffffffffffffffffffffffffffff021916908373ffffffffffffffffffffffffffffffffffffffff1602179055506000600660146101000a81548160ff0219169083151502179055506000600660156101000a81548160ff0219169083151502179055503480156200009c57600080fd5b5060405162004e5438038062004e548339818101604052810190620000c291906200044c565b80620000d4816200011560201b60201c565b50620000f5620000e96200013160201b60201c565b6200013960201b60201c565b80600590805190602001906200010d929190620001ff565b505062000502565b80600290805190602001906200012d929190620001ff565b5050565b600033905090565b6000600360009054906101000a900473ffffffffffffffffffffffffffffffffffffffff16905081600360006101000a81548173ffffffffffffffffffffffffffffffffffffffff021916908373ffffffffffffffffffffffffffffffffffffffff1602179055508173ffffffffffffffffffffffffffffffffffffffff168173ffffffffffffffffffffffffffffffffffffffff167f8be0079c531659141344cd1fd0a4f28419497f9722a3daafe3b4186f6b6457e060405160405180910390a35050565b8280546200020d90620004cc565b90600052602060002090601f0160209004810192826200023157600085556200027d565b82601f106200024c57805160ff19168380011785556200027d565b828001600101855582156200027d579182015b828111156200027c5782518255916020019190600101906200025f565b5b5090506200028c919062000290565b5090565b5b80821115620002ab57600081600090555060010162000291565b5090565b6000604051905090565b600080fd5b600080fd5b600080fd5b600080fd5b6000601f19601f8301169050919050565b7f4e487b7100000000000000000000000000000000000000000000000000000000600052604160045260246000fd5b6200031882620002cd565b810181811067ffffffffffffffff821117156200033a5762000339620002de565b5b80604052505050565b60006200034f620002af565b90506200035d82826200030d565b919050565b600067ffffffffffffffff82111562000380576200037f620002de565b5b6200038b82620002cd565b9050602081019050919050565b60005b83811015620003b85780820151818401526020810190506200039b565b83811115620003c8576000848401525b50505050565b6000620003e5620003df8462000362565b62000343565b905082815260208101848484011115620004045762000403620002c8565b5b6200041184828562000398565b509392505050565b600082601f830112620004315762000430620002c3565b5b815162000443848260208601620003ce565b91505092915050565b600060208284031215620004655762000464620002b9565b5b600082015167ffffffffffffffff811115620004865762000485620002be565b5b620004948482850162000419565b91505092915050565b7f4e487b7100000000000000000000000000000000000000000000000000000000600052602260045260246000fd5b60006002820490506001821680620004e557607f821691505b60208210811415620004fc57620004fb6200049d565b5b50919050565b61494280620005126000396000f3fe6080604052600436106101e25760003560e01c806395d89b4111610102578063cf30901211610095578063f242432a11610064578063f242432a1461068c578063f2fde38b146106b5578063f5298aca146106de578063f76f8d7814610707576101e2565b8063cf309012146105dd578063d96a094a14610608578063e081b78114610624578063e985e9c51461064f576101e2565b8063a0bcfc7f116100d1578063a0bcfc7f14610535578063a22cb4651461055e578063a3f4df7e14610587578063b186c88b146105b2576101e2565b806395d89b411461049f57806397901c89146104ca578063989bdbb6146105075780639c77eead1461051e576101e2565b80633ccfd60b1161017a5780636817c76c116101495780636817c76c146104095780636b20c45414610434578063715018a61461045d5780638da5cb5b14610474576101e2565b80633ccfd60b1461035f5780634e1273f4146103765780635c5290d4146103b357806363dd574f146103de576101e2565b80630e89341c116101b65780630e89341c146102a357806318160ddd146102e05780632eb2c2d61461030b57806332cb6b0c14610334576101e2565b8062fdd58e146101e757806301ffc9a714610224578063049c5c491461026157806306fdde0314610278575b600080fd5b3480156101f357600080fd5b5061020e60048036038101906102099190612d1b565b610732565b60405161021b9190612d6a565b60405180910390f35b34801561023057600080fd5b5061024b60048036038101906102469190612ddd565b6107fb565b6040516102589190612e25565b60405180910390f35b34801561026d57600080fd5b506102766108dd565b005b34801561028457600080fd5b5061028d610985565b60405161029a9190612ed9565b60405180910390f35b3480156102af57600080fd5b506102ca60048036038101906102c59190612efb565b6109c2565b6040516102d79190612ed9565b60405180910390f35b3480156102ec57600080fd5b506102f5610a8a565b6040516103029190612d6a565b60405180910390f35b34801561031757600080fd5b50610332600480360381019061032d9190613125565b610a94565b005b34801561034057600080fd5b50610349610b35565b6040516103569190612d6a565b60405180910390f35b34801561036b57600080fd5b50610374610b3b565b005b34801561038257600080fd5b5061039d600480360381019061039891906132b7565b610c28565b6040516103aa91906133ed565b60405180910390f35b3480156103bf57600080fd5b506103c8610d41565b6040516103d59190612d6a565b60405180910390f35b3480156103ea57600080fd5b506103f3610d46565b6040516104009190612d6a565b60405180910390f35b34801561041557600080fd5b5061041e610d4b565b60405161042b9190612d6a565b60405180910390f35b34801561044057600080fd5b5061045b6004803603810190610456919061340f565b610d57565b005b34801561046957600080fd5b50610472610df4565b005b34801561048057600080fd5b50610489610e7c565b60405161049691906134a9565b60405180910390f35b3480156104ab57600080fd5b506104b4610ea6565b6040516104c19190612ed9565b60405180910390f35b3480156104d657600080fd5b506104f160048036038101906104ec91906134c4565b610ee3565b6040516104fe9190612d6a565b60405180910390f35b34801561051357600080fd5b5061051c610efb565b005b34801561052a57600080fd5b50610533610f94565b005b34801561054157600080fd5b5061055c6004803603810190610557919061354c565b61109c565b005b34801561056a57600080fd5b50610585600480360381019061058091906135c5565b61117e565b005b34801561059357600080fd5b5061059c611194565b6040516105a99190612ed9565b60405180910390f35b3480156105be57600080fd5b506105c76111cd565b6040516105d49190612d6a565b60405180910390f35b3480156105e957600080fd5b506105f26111d2565b6040516105ff9190612e25565b60405180910390f35b610622600480360381019061061d9190612efb565b6111e5565b005b34801561063057600080fd5b50610639611447565b6040516106469190612e25565b60405180910390f35b34801561065b57600080fd5b5061067660048036038101906106719190613605565b61145a565b6040516106839190612e25565b60405180910390f35b34801561069857600080fd5b506106b360048036038101906106ae9190613645565b6114ee565b005b3480156106c157600080fd5b506106dc60048036038101906106d791906134c4565b61158f565b005b3480156106ea57600080fd5b50610705600480360381019061070091906136dc565b611687565b005b34801561071357600080fd5b5061071c611724565b6040516107299190612ed9565b60405180910390f35b60008073ffffffffffffffffffffffffffffffffffffffff168373ffffffffffffffffffffffffffffffffffffffff1614156107a3576040517f08c379a000000000000000000000000000000000000000000000000000000000815260040161079a906137a1565b60405180910390fd5b60008083815260200190815260200160002060008473ffffffffffffffffffffffffffffffffffffffff1673ffffffffffffffffffffffffffffffffffffffff16815260200190815260200160002054905092915050565b60007fd9b67a26000000000000000000000000000000000000000000000000000000007bffffffffffffffffffffffffffffffffffffffffffffffffffffffff1916827bffffffffffffffffffffffffffffffffffffffffffffffffffffffff191614806108c657507f0e89341c000000000000000000000000000000000000000000000000000000007bffffffffffffffffffffffffffffffffffffffffffffffffffffffff1916827bffffffffffffffffffffffffffffffffffffffffffffffffffffffff1916145b806108d657506108d58261175d565b5b9050919050565b6108e56117c7565b73ffffffffffffffffffffffffffffffffffffffff16610903610e7c565b73ffffffffffffffffffffffffffffffffffffffff1614610959576040517f08c379a00000000000000000000000000000000000000000000000000000000081526004016109509061380d565b60405180910390fd5b600660149054906101000a900460ff1615600660146101000a81548160ff021916908315150217905550565b60606040518060400160405280600c81526020017f564f4f444f4f205641554c540000000000000000000000000000000000000000815250905090565b60606000600580546109d39061385c565b905011610a15576040517f08c379a0000000000000000000000000000000000000000000000000000000008152600401610a0c906138da565b60405180910390fd5b60008214610a58576040517f08c379a0000000000000000000000000000000000000000000000000000000008152600401610a4f90613946565b60405180910390fd5b6005610a63836117cf565b604051602001610a74929190613a36565b6040516020818303038152906040529050919050565b6000600454905090565b610a9c6117c7565b73ffffffffffffffffffffffffffffffffffffffff168573ffffffffffffffffffffffffffffffffffffffff161480610ae25750610ae185610adc6117c7565b61145a565b5b610b21576040517f08c379a0000000000000000000000000000000000000000000000000000000008152600401610b1890613acc565b60405180910390fd5b610b2e8585858585611930565b5050505050565b61271081565b610b436117c7565b73ffffffffffffffffffffffffffffffffffffffff16610b61610e7c565b73ffffffffffffffffffffffffffffffffffffffff1614610bb7576040517f08c379a0000000000000000000000000000000000000000000000000000000008152600401610bae9061380d565b60405180910390fd5b6000479050600660009054906101000a900473ffffffffffffffffffffffffffffffffffffffff1673ffffffffffffffffffffffffffffffffffffffff166108fc829081150290604051600060405180830381858888f19350505050158015610c24573d6000803e3d6000fd5b5050565b60608151835114610c6e576040517f08c379a0000000000000000000000000000000000000000000000000000000008152600401610c6590613b5e565b60405180910390fd5b6000835167ffffffffffffffff811115610c8b57610c8a612f2d565b5b604051908082528060200260200182016040528015610cb95781602001602082028036833780820191505090505b50905060005b8451811015610d3657610d06858281518110610cde57610cdd613b7e565b5b6020026020010151858381518110610cf957610cf8613b7e565b5b6020026020010151610732565b828281518110610d1957610d18613b7e565b5b60200260200101818152505080610d2f90613bdc565b9050610cbf565b508091505092915050565b60fa81565b600381565b67013fbe85edc9000081565b610d5f6117c7565b73ffffffffffffffffffffffffffffffffffffffff168373ffffffffffffffffffffffffffffffffffffffff161480610da55750610da483610d9f6117c7565b61145a565b5b610de4576040517f08c379a0000000000000000000000000000000000000000000000000000000008152600401610ddb90613c97565b60405180910390fd5b610def838383611c44565b505050565b610dfc6117c7565b73ffffffffffffffffffffffffffffffffffffffff16610e1a610e7c565b73ffffffffffffffffffffffffffffffffffffffff1614610e70576040517f08c379a0000000000000000000000000000000000000000000000000000000008152600401610e679061380d565b60405180910390fd5b610e7a6000611ef5565b565b6000600360009054906101000a900473ffffffffffffffffffffffffffffffffffffffff16905090565b60606040518060400160405280600281526020017f5656000000000000000000000000000000000000000000000000000000000000815250905090565b60076020528060005260406000206000915090505481565b610f036117c7565b73ffffffffffffffffffffffffffffffffffffffff16610f21610e7c565b73ffffffffffffffffffffffffffffffffffffffff1614610f77576040517f08c379a0000000000000000000000000000000000000000000000000000000008152600401610f6e9061380d565b60405180910390fd5b6001600660156101000a81548160ff021916908315150217905550565b610f9c6117c7565b73ffffffffffffffffffffffffffffffffffffffff16610fba610e7c565b73ffffffffffffffffffffffffffffffffffffffff1614611010576040517f08c379a00000000000000000000000000000000000000000000000000000000081526004016110079061380d565b60405180910390fd5b61271060fa6004546110229190613cb7565b1115611063576040517f08c379a000000000000000000000000000000000000000000000000000000000815260040161105a90613d59565b60405180910390fd5b60fa600460008282546110769190613cb7565b9250508190555061109a33600060fa60405180602001604052806000815250611fbb565b565b6110a46117c7565b73ffffffffffffffffffffffffffffffffffffffff166110c2610e7c565b73ffffffffffffffffffffffffffffffffffffffff1614611118576040517f08c379a000000000000000000000000000000000000000000000000000000000815260040161110f9061380d565b60405180910390fd5b600660159054906101000a900460ff1615611168576040517f08c379a000000000000000000000000000000000000000000000000000000000815260040161115f90613dc5565b60405180910390fd5b818160059190611179929190612bd0565b505050565b6111906111896117c7565b8383612151565b5050565b6040518060400160405280600c81526020017f564f4f444f4f205641554c54000000000000000000000000000000000000000081525081565b600081565b600660159054906101000a900460ff1681565b600660149054906101000a900460ff16611234576040517f08c379a000000000000000000000000000000000000000000000000000000000815260040161122b90613e31565b60405180910390fd5b600081118015611245575060038111155b611284576040517f08c379a000000000000000000000000000000000000000000000000000000000815260040161127b90613ec3565b60405180910390fd5b612710816004546112959190613cb7565b11156112d6576040517f08c379a00000000000000000000000000000000000000000000000000000000081526004016112cd90613d59565b60405180910390fd5b600381600760003373ffffffffffffffffffffffffffffffffffffffff1673ffffffffffffffffffffffffffffffffffffffff168152602001908152602001600020546113239190613cb7565b1115611364576040517f08c379a000000000000000000000000000000000000000000000000000000000815260040161135b90613f2f565b60405180910390fd5b348167013fbe85edc900006113799190613f4f565b146113b9576040517f08c379a00000000000000000000000000000000000000000000000000000000081526004016113b090613ff5565b60405180910390fd5b80600460008282546113cb9190613cb7565b9250508190555080600760003373ffffffffffffffffffffffffffffffffffffffff1673ffffffffffffffffffffffffffffffffffffffff16815260200190815260200160002060008282546114219190613cb7565b925050819055506114443360008360405180602001604052806000815250611fbb565b50565b600660149054906101000a900460ff1681565b6000600160008473ffffffffffffffffffffffffffffffffffffffff1673ffffffffffffffffffffffffffffffffffffffff16815260200190815260200160002060008373ffffffffffffffffffffffffffffffffffffffff1673ffffffffffffffffffffffffffffffffffffffff16815260200190815260200160002060009054906101000a900460ff16905092915050565b6114f66117c7565b73ffffffffffffffffffffffffffffffffffffffff168573ffffffffffffffffffffffffffffffffffffffff16148061153c575061153b856115366117c7565b61145a565b5b61157b576040517f08c379a000000000000000000000000000000000000000000000000000000000815260040161157290613c97565b60405180910390fd5b61158885858585856122be565b5050505050565b6115976117c7565b73ffffffffffffffffffffffffffffffffffffffff166115b5610e7c565b73ffffffffffffffffffffffffffffffffffffffff161461160b576040517f08c379a00000000000000000000000000000000000000000000000000000000081526004016116029061380d565b60405180910390fd5b600073ffffffffffffffffffffffffffffffffffffffff168173ffffffffffffffffffffffffffffffffffffffff16141561167b576040517f08c379a000000000000000000000000000000000000000000000000000000000815260040161167290614087565b60405180910390fd5b61168481611ef5565b50565b61168f6117c7565b73ffffffffffffffffffffffffffffffffffffffff168373ffffffffffffffffffffffffffffffffffffffff1614806116d557506116d4836116cf6117c7565b61145a565b5b611714576040517f08c379a000000000000000000000000000000000000000000000000000000000815260040161170b90613c97565b60405180910390fd5b61171f838383612540565b505050565b6040518060400160405280600281526020017f565600000000000000000000000000000000000000000000000000000000000081525081565b60007f01ffc9a7000000000000000000000000000000000000000000000000000000007bffffffffffffffffffffffffffffffffffffffffffffffffffffffff1916827bffffffffffffffffffffffffffffffffffffffffffffffffffffffff1916149050919050565b600033905090565b60606000821415611817576040518060400160405280600181526020017f3000000000000000000000000000000000000000000000000000000000000000815250905061192b565b600082905060005b6000821461184957808061183290613bdc565b915050600a8261184291906140d6565b915061181f565b60008167ffffffffffffffff81111561186557611864612f2d565b5b6040519080825280601f01601f1916602001820160405280156118975781602001600182028036833780820191505090505b5090505b60008514611924576001826118b09190614107565b9150600a856118bf919061413b565b60306118cb9190613cb7565b60f81b8183815181106118e1576118e0613b7e565b5b60200101907effffffffffffffffffffffffffffffffffffffffffffffffffffffffffffff1916908160001a905350600a8561191d91906140d6565b945061189b565b8093505050505b919050565b8151835114611974576040517f08c379a000000000000000000000000000000000000000000000000000000000815260040161196b906141de565b60405180910390fd5b600073ffffffffffffffffffffffffffffffffffffffff168473ffffffffffffffffffffffffffffffffffffffff1614156119e4576040517f08c379a00000000000000000000000000000000000000000000000000000000081526004016119db90614270565b60405180910390fd5b60006119ee6117c7565b90506119fe81878787878761275d565b60005b8451811015611baf576000858281518110611a1f57611a1e613b7e565b5b602002602001015190506000858381518110611a3e57611a3d613b7e565b5b60200260200101519050600080600084815260200190815260200160002060008b73ffffffffffffffffffffffffffffffffffffffff1673ffffffffffffffffffffffffffffffffffffffff16815260200190815260200160002054905081811015611adf576040517f08c379a0000000000000000000000000000000000000000000000000000000008152600401611ad690614302565b60405180910390fd5b81810360008085815260200190815260200160002060008c73ffffffffffffffffffffffffffffffffffffffff1673ffffffffffffffffffffffffffffffffffffffff168152602001908152602001600020819055508160008085815260200190815260200160002060008b73ffffffffffffffffffffffffffffffffffffffff1673ffffffffffffffffffffffffffffffffffffffff1681526020019081526020016000206000828254611b949190613cb7565b9250508190555050505080611ba890613bdc565b9050611a01565b508473ffffffffffffffffffffffffffffffffffffffff168673ffffffffffffffffffffffffffffffffffffffff168273ffffffffffffffffffffffffffffffffffffffff167f4a39dc06d4c0dbc64b70af90fd698a233a518aa5d07e595d983b8c0526c8f7fb8787604051611c26929190614322565b60405180910390a4611c3c818787878787612765565b505050505050565b600073ffffffffffffffffffffffffffffffffffffffff168373ffffffffffffffffffffffffffffffffffffffff161415611cb4576040517f08c379a0000000000000000000000000000000000000000000000000000000008152600401611cab906143cb565b60405180910390fd5b8051825114611cf8576040517f08c379a0000000000000000000000000000000000000000000000000000000008152600401611cef906141de565b60405180910390fd5b6000611d026117c7565b9050611d228185600086866040518060200160405280600081525061275d565b60005b8351811015611e6f576000848281518110611d4357611d42613b7e565b5b602002602001015190506000848381518110611d6257611d61613b7e565b5b60200260200101519050600080600084815260200190815260200160002060008973ffffffffffffffffffffffffffffffffffffffff1673ffffffffffffffffffffffffffffffffffffffff16815260200190815260200160002054905081811015611e03576040517f08c379a0000000000000000000000000000000000000000000000000000000008152600401611dfa9061445d565b60405180910390fd5b81810360008085815260200190815260200160002060008a73ffffffffffffffffffffffffffffffffffffffff1673ffffffffffffffffffffffffffffffffffffffff168152602001908152602001600020819055505050508080611e6790613bdc565b915050611d25565b50600073ffffffffffffffffffffffffffffffffffffffff168473ffffffffffffffffffffffffffffffffffffffff168273ffffffffffffffffffffffffffffffffffffffff167f4a39dc06d4c0dbc64b70af90fd698a233a518aa5d07e595d983b8c0526c8f7fb8686604051611ee7929190614322565b60405180910390a450505050565b6000600360009054906101000a900473ffffffffffffffffffffffffffffffffffffffff16905081600360006101000a81548173ffffffffffffffffffffffffffffffffffffffff021916908373ffffffffffffffffffffffffffffffffffffffff1602179055508173ffffffffffffffffffffffffffffffffffffffff168173ffffffffffffffffffffffffffffffffffffffff167f8be0079c531659141344cd1fd0a4f28419497f9722a3daafe3b4186f6b6457e060405160405180910390a35050565b600073ffffffffffffffffffffffffffffffffffffffff168473ffffffffffffffffffffffffffffffffffffffff16141561202b576040517f08c379a0000000000000000000000000000000000000000000000000000000008152600401612022906144ef565b60405180910390fd5b60006120356117c7565b9050612056816000876120478861294c565b6120508861294c565b8761275d565b8260008086815260200190815260200160002060008773ffffffffffffffffffffffffffffffffffffffff1673ffffffffffffffffffffffffffffffffffffffff16815260200190815260200160002060008282546120b59190613cb7565b925050819055508473ffffffffffffffffffffffffffffffffffffffff16600073ffffffffffffffffffffffffffffffffffffffff168273ffffffffffffffffffffffffffffffffffffffff167fc3d58168c5ae7397731d063d5bbf3d657854427343f4c083240f7aacaa2d0f62878760405161213392919061450f565b60405180910390a461214a816000878787876129c6565b5050505050565b8173ffffffffffffffffffffffffffffffffffffffff168373ffffffffffffffffffffffffffffffffffffffff1614156121c0576040517f08c379a00000000000000000000000000000000000000000000000000000000081526004016121b7906145aa565b60405180910390fd5b80600160008573ffffffffffffffffffffffffffffffffffffffff1673ffffffffffffffffffffffffffffffffffffffff16815260200190815260200160002060008473ffffffffffffffffffffffffffffffffffffffff1673ffffffffffffffffffffffffffffffffffffffff16815260200190815260200160002060006101000a81548160ff0219169083151502179055508173ffffffffffffffffffffffffffffffffffffffff168373ffffffffffffffffffffffffffffffffffffffff167f17307eab39ab6107e8899845ad3d59bd9653f200f220920489ca2b5937696c31836040516122b19190612e25565b60405180910390a3505050565b600073ffffffffffffffffffffffffffffffffffffffff168473ffffffffffffffffffffffffffffffffffffffff16141561232e576040517f08c379a000000000000000000000000000000000000000000000000000000000815260040161232590614270565b60405180910390fd5b60006123386117c7565b90506123588187876123498861294c565b6123528861294c565b8761275d565b600080600086815260200190815260200160002060008873ffffffffffffffffffffffffffffffffffffffff1673ffffffffffffffffffffffffffffffffffffffff168152602001908152602001600020549050838110156123ef576040517f08c379a00000000000000000000000000000000000000000000000000000000081526004016123e690614302565b60405180910390fd5b83810360008087815260200190815260200160002060008973ffffffffffffffffffffffffffffffffffffffff1673ffffffffffffffffffffffffffffffffffffffff168152602001908152602001600020819055508360008087815260200190815260200160002060008873ffffffffffffffffffffffffffffffffffffffff1673ffffffffffffffffffffffffffffffffffffffff16815260200190815260200160002060008282546124a49190613cb7565b925050819055508573ffffffffffffffffffffffffffffffffffffffff168773ffffffffffffffffffffffffffffffffffffffff168373ffffffffffffffffffffffffffffffffffffffff167fc3d58168c5ae7397731d063d5bbf3d657854427343f4c083240f7aacaa2d0f62888860405161252192919061450f565b60405180910390a46125378288888888886129c6565b50505050505050565b600073ffffffffffffffffffffffffffffffffffffffff168373ffffffffffffffffffffffffffffffffffffffff1614156125b0576040517f08c379a00000000000000000000000000000000000000000000000000000000081526004016125a7906143cb565b60405180910390fd5b60006125ba6117c7565b90506125ea818560006125cc8761294c565b6125d58761294c565b6040518060200160405280600081525061275d565b600080600085815260200190815260200160002060008673ffffffffffffffffffffffffffffffffffffffff1673ffffffffffffffffffffffffffffffffffffffff16815260200190815260200160002054905082811015612681576040517f08c379a00000000000000000000000000000000000000000000000000000000081526004016126789061445d565b60405180910390fd5b82810360008086815260200190815260200160002060008773ffffffffffffffffffffffffffffffffffffffff1673ffffffffffffffffffffffffffffffffffffffff16815260200190815260200160002081905550600073ffffffffffffffffffffffffffffffffffffffff168573ffffffffffffffffffffffffffffffffffffffff168373ffffffffffffffffffffffffffffffffffffffff167fc3d58168c5ae7397731d063d5bbf3d657854427343f4c083240f7aacaa2d0f62878760405161274e92919061450f565b60405180910390a45050505050565b505050505050565b6127848473ffffffffffffffffffffffffffffffffffffffff16612bad565b15612944578373ffffffffffffffffffffffffffffffffffffffff1663bc197c8187878686866040518663ffffffff1660e01b81526004016127ca95949392919061461f565b602060405180830381600087803b1580156127e457600080fd5b505af192505050801561281557506040513d601f19601f82011682018060405250810190612812919061469c565b60015b6128bb576128216146d6565b806308c379a0141561287e57506128366146f8565b806128415750612880565b806040517f08c379a00000000000000000000000000000000000000000000000000000000081526004016128759190612ed9565b60405180910390fd5b505b6040517f08c379a00000000000000000000000000000000000000000000000000000000081526004016128b290614800565b60405180910390fd5b63bc197c8160e01b7bffffffffffffffffffffffffffffffffffffffffffffffffffffffff1916817bffffffffffffffffffffffffffffffffffffffffffffffffffffffff191614612942576040517f08c379a000000000000000000000000000000000000000000000000000000000815260040161293990614892565b60405180910390fd5b505b505050505050565b60606000600167ffffffffffffffff81111561296b5761296a612f2d565b5b6040519080825280602002602001820160405280156129995781602001602082028036833780820191505090505b50905082816000815181106129b1576129b0613b7e565b5b60200260200101818152505080915050919050565b6129e58473ffffffffffffffffffffffffffffffffffffffff16612bad565b15612ba5578373ffffffffffffffffffffffffffffffffffffffff1663f23a6e6187878686866040518663ffffffff1660e01b8152600401612a2b9594939291906148b2565b602060405180830381600087803b158015612a4557600080fd5b505af1925050508015612a7657506040513d601f19601f82011682018060405250810190612a73919061469c565b60015b612b1c57612a826146d6565b806308c379a01415612adf5750612a976146f8565b80612aa25750612ae1565b806040517f08c379a0000000000000000000000000000000000000000000000000000000008152600401612ad69190612ed9565b60405180910390fd5b505b6040517f08c379a0000000000000000000000000000000000000000000000000000000008152600401612b1390614800565b60405180910390fd5b63f23a6e6160e01b7bffffffffffffffffffffffffffffffffffffffffffffffffffffffff1916817bffffffffffffffffffffffffffffffffffffffffffffffffffffffff191614612ba3576040517f08c379a0000000000000000000000000000000000000000000000000000000008152600401612b9a90614892565b60405180910390fd5b505b505050505050565b6000808273ffffffffffffffffffffffffffffffffffffffff163b119050919050565b828054612bdc9061385c565b90600052602060002090601f016020900481019282612bfe5760008555612c45565b82601f10612c1757803560ff1916838001178555612c45565b82800160010185558215612c45579182015b82811115612c44578235825591602001919060010190612c29565b5b509050612c529190612c56565b5090565b5b80821115612c6f576000816000905550600101612c57565b5090565b6000604051905090565b600080fd5b600080fd5b600073ffffffffffffffffffffffffffffffffffffffff82169050919050565b6000612cb282612c87565b9050919050565b612cc281612ca7565b8114612ccd57600080fd5b50565b600081359050612cdf81612cb9565b92915050565b6000819050919050565b612cf881612ce5565b8114612d0357600080fd5b50565b600081359050612d1581612cef565b92915050565b60008060408385031215612d3257612d31612c7d565b5b6000612d4085828601612cd0565b9250506020612d5185828601612d06565b9150509250929050565b612d6481612ce5565b82525050565b6000602082019050612d7f6000830184612d5b565b92915050565b60007fffffffff0000000000000000000000000000000000000000000000000000000082169050919050565b612dba81612d85565b8114612dc557600080fd5b50565b600081359050612dd781612db1565b92915050565b600060208284031215612df357612df2612c7d565b5b6000612e0184828501612dc8565b91505092915050565b60008115159050919050565b612e1f81612e0a565b82525050565b6000602082019050612e3a6000830184612e16565b92915050565b600081519050919050565b600082825260208201905092915050565b60005b83811015612e7a578082015181840152602081019050612e5f565b83811115612e89576000848401525b50505050565b6000601f19601f8301169050919050565b6000612eab82612e40565b612eb58185612e4b565b9350612ec5818560208601612e5c565b612ece81612e8f565b840191505092915050565b60006020820190508181036000830152612ef38184612ea0565b905092915050565b600060208284031215612f1157612f10612c7d565b5b6000612f1f84828501612d06565b91505092915050565b600080fd5b7f4e487b7100000000000000000000000000000000000000000000000000000000600052604160045260246000fd5b612f6582612e8f565b810181811067ffffffffffffffff82111715612f8457612f83612f2d565b5b80604052505050565b6000612f97612c73565b9050612fa38282612f5c565b919050565b600067ffffffffffffffff821115612fc357612fc2612f2d565b5b602082029050602081019050919050565b600080fd5b6000612fec612fe784612fa8565b612f8d565b9050808382526020820190506020840283018581111561300f5761300e612fd4565b5b835b8181101561303857806130248882612d06565b845260208401935050602081019050613011565b5050509392505050565b600082601f83011261305757613056612f28565b5b8135613067848260208601612fd9565b91505092915050565b600080fd5b600067ffffffffffffffff8211156130905761308f612f2d565b5b61309982612e8f565b9050602081019050919050565b82818337600083830152505050565b60006130c86130c384613075565b612f8d565b9050828152602081018484840111156130e4576130e3613070565b5b6130ef8482856130a6565b509392505050565b600082601f83011261310c5761310b612f28565b5b813561311c8482602086016130b5565b91505092915050565b600080600080600060a0868803121561314157613140612c7d565b5b600061314f88828901612cd0565b955050602061316088828901612cd0565b945050604086013567ffffffffffffffff81111561318157613180612c82565b5b61318d88828901613042565b935050606086013567ffffffffffffffff8111156131ae576131ad612c82565b5b6131ba88828901613042565b925050608086013567ffffffffffffffff8111156131db576131da612c82565b5b6131e7888289016130f7565b9150509295509295909350565b600067ffffffffffffffff82111561320f5761320e612f2d565b5b602082029050602081019050919050565b600061323361322e846131f4565b612f8d565b9050808382526020820190506020840283018581111561325657613255612fd4565b5b835b8181101561327f578061326b8882612cd0565b845260208401935050602081019050613258565b5050509392505050565b600082601f83011261329e5761329d612f28565b5b81356132ae848260208601613220565b91505092915050565b600080604083850312156132ce576132cd612c7d565b5b600083013567ffffffffffffffff8111156132ec576132eb612c82565b5b6132f885828601613289565b925050602083013567ffffffffffffffff81111561331957613318612c82565b5b61332585828601613042565b9150509250929050565b600081519050919050565b600082825260208201905092915050565b6000819050602082019050919050565b61336481612ce5565b82525050565b6000613376838361335b565b60208301905092915050565b6000602082019050919050565b600061339a8261332f565b6133a4818561333a565b93506133af8361334b565b8060005b838110156133e05781516133c7888261336a565b97506133d283613382565b9250506001810190506133b3565b5085935050505092915050565b60006020820190508181036000830152613407818461338f565b905092915050565b60008060006060848603121561342857613427612c7d565b5b600061343686828701612cd0565b935050602084013567ffffffffffffffff81111561345757613456612c82565b5b61346386828701613042565b925050604084013567ffffffffffffffff81111561348457613483612c82565b5b61349086828701613042565b9150509250925092565b6134a381612ca7565b82525050565b60006020820190506134be600083018461349a565b92915050565b6000602082840312156134da576134d9612c7d565b5b60006134e884828501612cd0565b91505092915050565b600080fd5b60008083601f84011261350c5761350b612f28565b5b8235905067ffffffffffffffff811115613529576135286134f1565b5b60208301915083600182028301111561354557613544612fd4565b5b9250929050565b6000806020838503121561356357613562612c7d565b5b600083013567ffffffffffffffff81111561358157613580612c82565b5b61358d858286016134f6565b92509250509250929050565b6135a281612e0a565b81146135ad57600080fd5b50565b6000813590506135bf81613599565b92915050565b600080604083850312156135dc576135db612c7d565b5b60006135ea85828601612cd0565b92505060206135fb858286016135b0565b9150509250929050565b6000806040838503121561361c5761361b612c7d565b5b600061362a85828601612cd0565b925050602061363b85828601612cd0565b9150509250929050565b600080600080600060a0868803121561366157613660612c7d565b5b600061366f88828901612cd0565b955050602061368088828901612cd0565b945050604061369188828901612d06565b93505060606136a288828901612d06565b925050608086013567ffffffffffffffff8111156136c3576136c2612c82565b5b6136cf888289016130f7565b9150509295509295909350565b6000806000606084860312156136f5576136f4612c7d565b5b600061370386828701612cd0565b935050602061371486828701612d06565b925050604061372586828701612d06565b9150509250925092565b7f455243313135353a2062616c616e636520717565727920666f7220746865207a60008201527f65726f2061646472657373000000000000000000000000000000000000000000602082015250565b600061378b602b83612e4b565b91506137968261372f565b604082019050919050565b600060208201905081810360008301526137ba8161377e565b9050919050565b7f4f776e61626c653a2063616c6c6572206973206e6f7420746865206f776e6572600082015250565b60006137f7602083612e4b565b9150613802826137c1565b602082019050919050565b60006020820190508181036000830152613826816137ea565b9050919050565b7f4e487b7100000000000000000000000000000000000000000000000000000000600052602260045260246000fd5b6000600282049050600182168061387457607f821691505b602082108114156138885761388761382d565b5b50919050565b7f4241534520555249204e4f542053455400000000000000000000000000000000600082015250565b60006138c4601083612e4b565b91506138cf8261388e565b602082019050919050565b600060208201905081810360008301526138f3816138b7565b9050919050565b7f5552493a206e6f6e6578697374656e7420746f6b656e00000000000000000000600082015250565b6000613930601683612e4b565b915061393b826138fa565b602082019050919050565b6000602082019050818103600083015261395f81613923565b9050919050565b600081905092915050565b60008190508160005260206000209050919050565b600081546139938161385c565b61399d8186613966565b945060018216600081146139b857600181146139c9576139fc565b60ff198316865281860193506139fc565b6139d285613971565b60005b838110156139f4578154818901526001820191506020810190506139d5565b838801955050505b50505092915050565b6000613a1082612e40565b613a1a8185613966565b9350613a2a818560208601612e5c565b80840191505092915050565b6000613a428285613986565b9150613a4e8284613a05565b91508190509392505050565b7f455243313135353a207472616e736665722063616c6c6572206973206e6f742060008201527f6f776e6572206e6f7220617070726f7665640000000000000000000000000000602082015250565b6000613ab6603283612e4b565b9150613ac182613a5a565b604082019050919050565b60006020820190508181036000830152613ae581613aa9565b9050919050565b7f455243313135353a206163636f756e747320616e6420696473206c656e67746860008201527f206d69736d617463680000000000000000000000000000000000000000000000602082015250565b6000613b48602983612e4b565b9150613b5382613aec565b604082019050919050565b60006020820190508181036000830152613b7781613b3b565b9050919050565b7f4e487b7100000000000000000000000000000000000000000000000000000000600052603260045260246000fd5b7f4e487b7100000000000000000000000000000000000000000000000000000000600052601160045260246000fd5b6000613be782612ce5565b91507fffffffffffffffffffffffffffffffffffffffffffffffffffffffffffffffff821415613c1a57613c19613bad565b5b600182019050919050565b7f455243313135353a2063616c6c6572206973206e6f74206f776e6572206e6f7260008201527f20617070726f7665640000000000000000000000000000000000000000000000602082015250565b6000613c81602983612e4b565b9150613c8c82613c25565b604082019050919050565b60006020820190508181036000830152613cb081613c74565b9050919050565b6000613cc282612ce5565b9150613ccd83612ce5565b9250827fffffffffffffffffffffffffffffffffffffffffffffffffffffffffffffffff03821115613d0257613d01613bad565b5b828201905092915050565b7f4d41585f4d494e545f4143484945564544000000000000000000000000000000600082015250565b6000613d43601183612e4b565b9150613d4e82613d0d565b602082019050919050565b60006020820190508181036000830152613d7281613d36565b9050919050565b7f436f6e7472616374206d65746164617461206973206c6f636b65640000000000600082015250565b6000613daf601b83612e4b565b9150613dba82613d79565b602082019050919050565b60006020820190508181036000830152613dde81613da2565b9050919050565b7f53414c4520434c4f534544000000000000000000000000000000000000000000600082015250565b6000613e1b600b83612e4b565b9150613e2682613de5565b602082019050919050565b60006020820190508181036000830152613e4a81613e0e565b9050919050565b7f4d494e54204154204c45415354203120414e44204e4f54204d4f52452054484160008201527f4e203320544f4b454e5300000000000000000000000000000000000000000000602082015250565b6000613ead602a83612e4b565b9150613eb882613e51565b604082019050919050565b60006020820190508181036000830152613edc81613ea0565b9050919050565b7f4d4158203320544f4b454e532050455220414444524553530000000000000000600082015250565b6000613f19601883612e4b565b9150613f2482613ee3565b602082019050919050565b60006020820190508181036000830152613f4881613f0c565b9050919050565b6000613f5a82612ce5565b9150613f6583612ce5565b9250817fffffffffffffffffffffffffffffffffffffffffffffffffffffffffffffffff0483118215151615613f9e57613f9d613bad565b5b828202905092915050565b7f494e434f5252454354205041594d454e5420414d4f554e542000000000000000600082015250565b6000613fdf601983612e4b565b9150613fea82613fa9565b602082019050919050565b6000602082019050818103600083015261400e81613fd2565b9050919050565b7f4f776e61626c653a206e6577206f776e657220697320746865207a65726f206160008201527f6464726573730000000000000000000000000000000000000000000000000000602082015250565b6000614071602683612e4b565b915061407c82614015565b604082019050919050565b600060208201905081810360008301526140a081614064565b9050919050565b7f4e487b7100000000000000000000000000000000000000000000000000000000600052601260045260246000fd5b60006140e182612ce5565b91506140ec83612ce5565b9250826140fc576140fb6140a7565b5b828204905092915050565b600061411282612ce5565b915061411d83612ce5565b9250828210156141305761412f613bad565b5b828203905092915050565b600061414682612ce5565b915061415183612ce5565b925082614161576141606140a7565b5b828206905092915050565b7f455243313135353a2069647320616e6420616d6f756e7473206c656e6774682060008201527f6d69736d61746368000000000000000000000000000000000000000000000000602082015250565b60006141c8602883612e4b565b91506141d38261416c565b604082019050919050565b600060208201905081810360008301526141f7816141bb565b9050919050565b7f455243313135353a207472616e7366657220746f20746865207a65726f20616460008201527f6472657373000000000000000000000000000000000000000000000000000000602082015250565b600061425a602583612e4b565b9150614265826141fe565b604082019050919050565b600060208201905081810360008301526142898161424d565b9050919050565b7f455243313135353a20696e73756666696369656e742062616c616e636520666f60008201527f72207472616e7366657200000000000000000000000000000000000000000000602082015250565b60006142ec602a83612e4b565b91506142f782614290565b604082019050919050565b6000602082019050818103600083015261431b816142df565b9050919050565b6000604082019050818103600083015261433c818561338f565b90508181036020830152614350818461338f565b90509392505050565b7f455243313135353a206275726e2066726f6d20746865207a65726f206164647260008201527f6573730000000000000000000000000000000000000000000000000000000000602082015250565b60006143b5602383612e4b565b91506143c082614359565b604082019050919050565b600060208201905081810360008301526143e4816143a8565b9050919050565b7f455243313135353a206275726e20616d6f756e7420657863656564732062616c60008201527f616e636500000000000000000000000000000000000000000000000000000000602082015250565b6000614447602483612e4b565b9150614452826143eb565b604082019050919050565b600060208201905081810360008301526144768161443a565b9050919050565b7f455243313135353a206d696e7420746f20746865207a65726f2061646472657360008201527f7300000000000000000000000000000000000000000000000000000000000000602082015250565b60006144d9602183612e4b565b91506144e48261447d565b604082019050919050565b60006020820190508181036000830152614508816144cc565b9050919050565b60006040820190506145246000830185612d5b565b6145316020830184612d5b565b9392505050565b7f455243313135353a2073657474696e6720617070726f76616c2073746174757360008201527f20666f722073656c660000000000000000000000000000000000000000000000602082015250565b6000614594602983612e4b565b915061459f82614538565b604082019050919050565b600060208201905081810360008301526145c381614587565b9050919050565b600081519050919050565b600082825260208201905092915050565b60006145f1826145ca565b6145fb81856145d5565b935061460b818560208601612e5c565b61461481612e8f565b840191505092915050565b600060a082019050614634600083018861349a565b614641602083018761349a565b8181036040830152614653818661338f565b90508181036060830152614667818561338f565b9050818103608083015261467b81846145e6565b90509695505050505050565b60008151905061469681612db1565b92915050565b6000602082840312156146b2576146b1612c7d565b5b60006146c084828501614687565b91505092915050565b60008160e01c9050919050565b600060033d11156146f55760046000803e6146f26000516146c9565b90505b90565b600060443d10156147085761478b565b614710612c73565b60043d036004823e80513d602482011167ffffffffffffffff8211171561473857505061478b565b808201805167ffffffffffffffff811115614756575050505061478b565b80602083010160043d03850181111561477357505050505061478b565b61478282602001850186612f5c565b82955050505050505b90565b7f455243313135353a207472616e7366657220746f206e6f6e204552433131353560008201527f526563656976657220696d706c656d656e746572000000000000000000000000602082015250565b60006147ea603483612e4b565b91506147f58261478e565b604082019050919050565b60006020820190508181036000830152614819816147dd565b9050919050565b7f455243313135353a204552433131353552656365697665722072656a6563746560008201527f6420746f6b656e73000000000000000000000000000000000000000000000000602082015250565b600061487c602883612e4b565b915061488782614820565b604082019050919050565b600060208201905081810360008301526148ab8161486f565b9050919050565b600060a0820190506148c7600083018861349a565b6148d4602083018761349a565b6148e16040830186612d5b565b6148ee6060830185612d5b565b818103608083015261490081846145e6565b9050969550505050505056fea26469706673582212206ddf449a751b0a828b0ceaecf3b80f80720b62eacd42b202812aa8a63841d6e664736f6c63430008090033",
  "linkReferences": {},
  "deployedLinkReferences": {}
}