{
  "_format": "hh-sol-artifact-1",
  "contractName": "VoodooVaultBrokenPass",
  "sourceName": "contracts/VoodooVaultBrokenPass.sol",
  "abi": [
    {
      "inputs": [
        {
          "internalType": "string",
          "name": "_baseURI",
          "type": "string"
        }
      ],
      "stateMutability": "nonpayable",
      "type": "constructor"
    },
    {
      "anonymous": false,
      "inputs": [
        {
          "indexed": true,
          "internalType": "address",
          "name": "account",
          "type": "address"
        },
        {
          "indexed": true,
          "internalType": "address",
          "name": "operator",
          "type": "address"
        },
        {
          "indexed": false,
          "internalType": "bool",
          "name": "approved",
          "type": "bool"
        }
      ],
      "name": "ApprovalForAll",
      "type": "event"
    },
    {
      "anonymous": false,
      "inputs": [
        {
          "indexed": true,
          "internalType": "address",
          "name": "previousOwner",
          "type": "address"
        },
        {
          "indexed": true,
          "internalType": "address",
          "name": "newOwner",
          "type": "address"
        }
      ],
      "name": "OwnershipTransferred",
      "type": "event"
    },
    {
      "anonymous": false,
      "inputs": [
        {
          "indexed": true,
          "internalType": "address",
          "name": "operator",
          "type": "address"
        },
        {
          "indexed": true,
          "internalType": "address",
          "name": "from",
          "type": "address"
        },
        {
          "indexed": true,
          "internalType": "address",
          "name": "to",
          "type": "address"
        },
        {
          "indexed": false,
          "internalType": "uint256[]",
          "name": "ids",
          "type": "uint256[]"
        },
        {
          "indexed": false,
          "internalType": "uint256[]",
          "name": "values",
          "type": "uint256[]"
        }
      ],
      "name": "TransferBatch",
      "type": "event"
    },
    {
      "anonymous": false,
      "inputs": [
        {
          "indexed": true,
          "internalType": "address",
          "name": "operator",
          "type": "address"
        },
        {
          "indexed": true,
          "internalType": "address",
          "name": "from",
          "type": "address"
        },
        {
          "indexed": true,
          "internalType": "address",
          "name": "to",
          "type": "address"
        },
        {
          "indexed": false,
          "internalType": "uint256",
          "name": "id",
          "type": "uint256"
        },
        {
          "indexed": false,
          "internalType": "uint256",
          "name": "value",
          "type": "uint256"
        }
      ],
      "name": "TransferSingle",
      "type": "event"
    },
    {
      "anonymous": false,
      "inputs": [
        {
          "indexed": false,
          "internalType": "string",
          "name": "value",
          "type": "string"
        },
        {
          "indexed": true,
          "internalType": "uint256",
          "name": "id",
          "type": "uint256"
        }
      ],
      "name": "URI",
      "type": "event"
    },
    {
      "inputs": [],
      "name": "MAX_SUPPLY",
      "outputs": [
        {
          "internalType": "uint256",
          "name": "",
          "type": "uint256"
        }
      ],
      "stateMutability": "view",
      "type": "function"
    },
    {
      "inputs": [],
      "name": "NAME",
      "outputs": [
        {
          "internalType": "string",
          "name": "",
          "type": "string"
        }
      ],
      "stateMutability": "view",
      "type": "function"
    },
    {
      "inputs": [],
      "name": "SYMBOL",
      "outputs": [
        {
          "internalType": "string",
          "name": "",
          "type": "string"
        }
      ],
      "stateMutability": "view",
      "type": "function"
    },
    {
      "inputs": [],
      "name": "VV_COMMUNITY_VAULT",
      "outputs": [
        {
          "internalType": "uint256",
          "name": "",
          "type": "uint256"
        }
      ],
      "stateMutability": "view",
      "type": "function"
    },
    {
      "inputs": [],
      "name": "VV_PER_MINT",
      "outputs": [
        {
          "internalType": "uint256",
          "name": "",
          "type": "uint256"
        }
      ],
      "stateMutability": "view",
      "type": "function"
    },
    {
      "inputs": [
        {
          "internalType": "address",
          "name": "account",
          "type": "address"
        },
        {
          "internalType": "uint256",
          "name": "id",
          "type": "uint256"
        }
      ],
      "name": "balanceOf",
      "outputs": [
        {
          "internalType": "uint256",
          "name": "",
          "type": "uint256"
        }
      ],
      "stateMutability": "view",
      "type": "function"
    },
    {
      "inputs": [
        {
          "internalType": "address[]",
          "name": "accounts",
          "type": "address[]"
        },
        {
          "internalType": "uint256[]",
          "name": "ids",
          "type": "uint256[]"
        }
      ],
      "name": "balanceOfBatch",
      "outputs": [
        {
          "internalType": "uint256[]",
          "name": "",
          "type": "uint256[]"
        }
      ],
      "stateMutability": "view",
      "type": "function"
    },
    {
      "inputs": [
        {
          "internalType": "address",
          "name": "account",
          "type": "address"
        },
        {
          "internalType": "uint256",
          "name": "id",
          "type": "uint256"
        },
        {
          "internalType": "uint256",
          "name": "value",
          "type": "uint256"
        }
      ],
      "name": "burn",
      "outputs": [],
      "stateMutability": "nonpayable",
      "type": "function"
    },
    {
      "inputs": [
        {
          "internalType": "address",
          "name": "account",
          "type": "address"
        },
        {
          "internalType": "uint256[]",
          "name": "ids",
          "type": "uint256[]"
        },
        {
          "internalType": "uint256[]",
          "name": "values",
          "type": "uint256[]"
        }
      ],
      "name": "burnBatch",
      "outputs": [],
      "stateMutability": "nonpayable",
      "type": "function"
    },
    {
      "inputs": [
        {
          "internalType": "uint256",
          "name": "tokenQuantity",
          "type": "uint256"
        }
      ],
      "name": "buy",
      "outputs": [],
      "stateMutability": "payable",
      "type": "function"
    },
    {
      "inputs": [
        {
          "internalType": "address",
          "name": "account",
          "type": "address"
        },
        {
          "internalType": "address",
          "name": "operator",
          "type": "address"
        }
      ],
      "name": "isApprovedForAll",
      "outputs": [
        {
          "internalType": "bool",
          "name": "",
          "type": "bool"
        }
      ],
      "stateMutability": "view",
      "type": "function"
    },
    {
      "inputs": [],
      "name": "lockMetadata",
      "outputs": [],
      "stateMutability": "nonpayable",
      "type": "function"
    },
    {
      "inputs": [],
      "name": "locked",
      "outputs": [
        {
          "internalType": "bool",
          "name": "",
          "type": "bool"
        }
      ],
      "stateMutability": "view",
      "type": "function"
    },
    {
      "inputs": [],
      "name": "mintCommunity",
      "outputs": [],
      "stateMutability": "nonpayable",
      "type": "function"
    },
    {
      "inputs": [],
      "name": "mintPrice",
      "outputs": [
        {
          "internalType": "uint256",
          "name": "",
          "type": "uint256"
        }
      ],
      "stateMutability": "view",
      "type": "function"
    },
    {
      "inputs": [],
      "name": "name",
      "outputs": [
        {
          "internalType": "string",
          "name": "",
          "type": "string"
        }
      ],
      "stateMutability": "pure",
      "type": "function"
    },
    {
      "inputs": [],
      "name": "owner",
      "outputs": [
        {
          "internalType": "address",
          "name": "",
          "type": "address"
        }
      ],
      "stateMutability": "view",
      "type": "function"
    },
    {
      "inputs": [],
      "name": "renounceOwnership",
      "outputs": [],
      "stateMutability": "nonpayable",
      "type": "function"
    },
    {
      "inputs": [
        {
          "internalType": "address",
          "name": "from",
          "type": "address"
        },
        {
          "internalType": "address",
          "name": "to",
          "type": "address"
        },
        {
          "internalType": "uint256[]",
          "name": "ids",
          "type": "uint256[]"
        },
        {
          "internalType": "uint256[]",
          "name": "amounts",
          "type": "uint256[]"
        },
        {
          "internalType": "bytes",
          "name": "data",
          "type": "bytes"
        }
      ],
      "name": "safeBatchTransferFrom",
      "outputs": [],
      "stateMutability": "nonpayable",
      "type": "function"
    },
    {
      "inputs": [
        {
          "internalType": "address",
          "name": "from",
          "type": "address"
        },
        {
          "internalType": "address",
          "name": "to",
          "type": "address"
        },
        {
          "internalType": "uint256",
          "name": "id",
          "type": "uint256"
        },
        {
          "internalType": "uint256",
          "name": "amount",
          "type": "uint256"
        },
        {
          "internalType": "bytes",
          "name": "data",
          "type": "bytes"
        }
      ],
      "name": "safeTransferFrom",
      "outputs": [],
      "stateMutability": "nonpayable",
      "type": "function"
    },
    {
      "inputs": [],
      "name": "saleLive",
      "outputs": [
        {
          "internalType": "bool",
          "name": "",
          "type": "bool"
        }
      ],
      "stateMutability": "view",
      "type": "function"
    },
    {
      "inputs": [
        {
          "internalType": "address",
          "name": "operator",
          "type": "address"
        },
        {
          "internalType": "bool",
          "name": "approved",
          "type": "bool"
        }
      ],
      "name": "setApprovalForAll",
      "outputs": [],
      "stateMutability": "nonpayable",
      "type": "function"
    },
    {
      "inputs": [
        {
          "internalType": "string",
          "name": "_baseURI",
          "type": "string"
        }
      ],
      "name": "setBaseUri",
      "outputs": [],
      "stateMutability": "nonpayable",
      "type": "function"
    },
    {
      "inputs": [
        {
          "internalType": "bytes4",
          "name": "interfaceId",
          "type": "bytes4"
        }
      ],
      "name": "supportsInterface",
      "outputs": [
        {
          "internalType": "bool",
          "name": "",
          "type": "bool"
        }
      ],
      "stateMutability": "view",
      "type": "function"
    },
    {
      "inputs": [],
      "name": "symbol",
      "outputs": [
        {
          "internalType": "string",
          "name": "",
          "type": "string"
        }
      ],
      "stateMutability": "pure",
      "type": "function"
    },
    {
      "inputs": [],
      "name": "toggleSaleStatus",
      "outputs": [],
      "stateMutability": "nonpayable",
      "type": "function"
    },
    {
      "inputs": [],
      "name": "tokenIdToMint",
      "outputs": [
        {
          "internalType": "uint256",
          "name": "",
          "type": "uint256"
        }
      ],
      "stateMutability": "view",
      "type": "function"
    },
    {
      "inputs": [],
      "name": "totalSupply",
      "outputs": [
        {
          "internalType": "uint256",
          "name": "",
          "type": "uint256"
        }
      ],
      "stateMutability": "view",
      "type": "function"
    },
    {
      "inputs": [
        {
          "internalType": "address",
          "name": "newOwner",
          "type": "address"
        }
      ],
      "name": "transferOwnership",
      "outputs": [],
      "stateMutability": "nonpayable",
      "type": "function"
    },
    {
      "inputs": [
        {
          "internalType": "uint256",
          "name": "id",
          "type": "uint256"
        }
      ],
      "name": "uri",
      "outputs": [
        {
          "internalType": "string",
          "name": "",
          "type": "string"
        }
      ],
      "stateMutability": "view",
      "type": "function"
    },
    {
      "inputs": [],
      "name": "withdraw",
      "outputs": [],
      "stateMutability": "nonpayable",
      "type": "function"
    }
  ],
  "bytecode": "0x608060405273a8e5a5ad2e6cd7d350407a887f8005fdcef31e3d600660006101000a81548173ffffffffffffffffffffffffffffffffffffffff021916908373ffffffffffffffffffffffffffffffffffffffff16021790555073d952318889bd7281415314002c4d5569897bdbb9600760006101000a81548173ffffffffffffffffffffffffffffffffffffffff021916908373ffffffffffffffffffffffffffffffffffffffff1602179055506000600760146101000a81548160ff0219169083151502179055506000600760156101000a81548160ff021916908315150217905550348015620000f157600080fd5b5060405162004d9038038062004d908339818101604052810190620001179190620004a1565b8062000129816200016a60201b60201c565b506200014a6200013e6200018660201b60201c565b6200018e60201b60201c565b80600590805190602001906200016292919062000254565b505062000557565b80600290805190602001906200018292919062000254565b5050565b600033905090565b6000600360009054906101000a900473ffffffffffffffffffffffffffffffffffffffff16905081600360006101000a81548173ffffffffffffffffffffffffffffffffffffffff021916908373ffffffffffffffffffffffffffffffffffffffff1602179055508173ffffffffffffffffffffffffffffffffffffffff168173ffffffffffffffffffffffffffffffffffffffff167f8be0079c531659141344cd1fd0a4f28419497f9722a3daafe3b4186f6b6457e060405160405180910390a35050565b828054620002629062000521565b90600052602060002090601f016020900481019282620002865760008555620002d2565b82601f10620002a157805160ff1916838001178555620002d2565b82800160010185558215620002d2579182015b82811115620002d1578251825591602001919060010190620002b4565b5b509050620002e19190620002e5565b5090565b5b8082111562000300576000816000905550600101620002e6565b5090565b6000604051905090565b600080fd5b600080fd5b600080fd5b600080fd5b6000601f19601f8301169050919050565b7f4e487b7100000000000000000000000000000000000000000000000000000000600052604160045260246000fd5b6200036d8262000322565b810181811067ffffffffffffffff821117156200038f576200038e62000333565b5b80604052505050565b6000620003a462000304565b9050620003b2828262000362565b919050565b600067ffffffffffffffff821115620003d557620003d462000333565b5b620003e08262000322565b9050602081019050919050565b60005b838110156200040d578082015181840152602081019050620003f0565b838111156200041d576000848401525b50505050565b60006200043a6200043484620003b7565b62000398565b9050828152602081018484840111156200045957620004586200031d565b5b62000466848285620003ed565b509392505050565b600082601f83011262000486576200048562000318565b5b81516200049884826020860162000423565b91505092915050565b600060208284031215620004ba57620004b96200030e565b5b600082015167ffffffffffffffff811115620004db57620004da62000313565b5b620004e9848285016200046e565b91505092915050565b7f4e487b7100000000000000000000000000000000000000000000000000000000600052602260045260246000fd5b600060028204905060018216806200053a57607f821691505b60208210811415620005515762000550620004f2565b5b50919050565b61482980620005676000396000f3fe6080604052600436106101d75760003560e01c80638da5cb5b11610102578063cf30901211610095578063f242432a11610064578063f242432a14610644578063f2fde38b1461066d578063f5298aca14610696578063f76f8d78146106bf576101d7565b8063cf30901214610595578063d96a094a146105c0578063e081b781146105dc578063e985e9c514610607576101d7565b8063a0bcfc7f116100d1578063a0bcfc7f146104ed578063a22cb46514610516578063a3f4df7e1461053f578063b186c88b1461056a576101d7565b80638da5cb5b1461046957806395d89b4114610494578063989bdbb6146104bf5780639c77eead146104d6576101d7565b806332cb6b0c1161017a57806363dd574f1161014957806363dd574f146103d35780636817c76c146103fe5780636b20c45414610429578063715018a614610452576101d7565b806332cb6b0c146103295780633ccfd60b146103545780634e1273f41461036b5780635c5290d4146103a8576101d7565b806306fdde03116101b657806306fdde031461026d5780630e89341c1461029857806318160ddd146102d55780632eb2c2d614610300576101d7565b8062fdd58e146101dc57806301ffc9a714610219578063049c5c4914610256575b600080fd5b3480156101e857600080fd5b5061020360048036038101906101fe9190612c6e565b6106ea565b6040516102109190612cbd565b60405180910390f35b34801561022557600080fd5b50610240600480360381019061023b9190612d30565b6107b3565b60405161024d9190612d78565b60405180910390f35b34801561026257600080fd5b5061026b610895565b005b34801561027957600080fd5b5061028261093d565b60405161028f9190612e2c565b60405180910390f35b3480156102a457600080fd5b506102bf60048036038101906102ba9190612e4e565b61097a565b6040516102cc9190612e2c565b60405180910390f35b3480156102e157600080fd5b506102ea610a42565b6040516102f79190612cbd565b60405180910390f35b34801561030c57600080fd5b5061032760048036038101906103229190613078565b610a4c565b005b34801561033557600080fd5b5061033e610aed565b60405161034b9190612cbd565b60405180910390f35b34801561036057600080fd5b50610369610af3565b005b34801561037757600080fd5b50610392600480360381019061038d919061320a565b610c79565b60405161039f9190613340565b60405180910390f35b3480156103b457600080fd5b506103bd610d92565b6040516103ca9190612cbd565b60405180910390f35b3480156103df57600080fd5b506103e8610d97565b6040516103f59190612cbd565b60405180910390f35b34801561040a57600080fd5b50610413610d9c565b6040516104209190612cbd565b60405180910390f35b34801561043557600080fd5b50610450600480360381019061044b9190613362565b610da7565b005b34801561045e57600080fd5b50610467610e44565b005b34801561047557600080fd5b5061047e610ecc565b60405161048b91906133fc565b60405180910390f35b3480156104a057600080fd5b506104a9610ef6565b6040516104b69190612e2c565b60405180910390f35b3480156104cb57600080fd5b506104d4610f33565b005b3480156104e257600080fd5b506104eb610fcc565b005b3480156104f957600080fd5b50610514600480360381019061050f9190613472565b6110d4565b005b34801561052257600080fd5b5061053d600480360381019061053891906134eb565b6111b6565b005b34801561054b57600080fd5b506105546111cc565b6040516105619190612e2c565b60405180910390f35b34801561057657600080fd5b5061057f611205565b60405161058c9190612cbd565b60405180910390f35b3480156105a157600080fd5b506105aa61120a565b6040516105b79190612d78565b60405180910390f35b6105da60048036038101906105d59190612e4e565b61121d565b005b3480156105e857600080fd5b506105f161139a565b6040516105fe9190612d78565b60405180910390f35b34801561061357600080fd5b5061062e6004803603810190610629919061352b565b6113ad565b60405161063b9190612d78565b60405180910390f35b34801561065057600080fd5b5061066b6004803603810190610666919061356b565b611441565b005b34801561067957600080fd5b50610694600480360381019061068f9190613602565b6114e2565b005b3480156106a257600080fd5b506106bd60048036038101906106b8919061362f565b6115da565b005b3480156106cb57600080fd5b506106d4611677565b6040516106e19190612e2c565b60405180910390f35b60008073ffffffffffffffffffffffffffffffffffffffff168373ffffffffffffffffffffffffffffffffffffffff16141561075b576040517f08c379a0000000000000000000000000000000000000000000000000000000008152600401610752906136f4565b60405180910390fd5b60008083815260200190815260200160002060008473ffffffffffffffffffffffffffffffffffffffff1673ffffffffffffffffffffffffffffffffffffffff16815260200190815260200160002054905092915050565b60007fd9b67a26000000000000000000000000000000000000000000000000000000007bffffffffffffffffffffffffffffffffffffffffffffffffffffffff1916827bffffffffffffffffffffffffffffffffffffffffffffffffffffffff1916148061087e57507f0e89341c000000000000000000000000000000000000000000000000000000007bffffffffffffffffffffffffffffffffffffffffffffffffffffffff1916827bffffffffffffffffffffffffffffffffffffffffffffffffffffffff1916145b8061088e575061088d826116b0565b5b9050919050565b61089d61171a565b73ffffffffffffffffffffffffffffffffffffffff166108bb610ecc565b73ffffffffffffffffffffffffffffffffffffffff1614610911576040517f08c379a000000000000000000000000000000000000000000000000000000000815260040161090890613760565b60405180910390fd5b600760149054906101000a900460ff1615600760146101000a81548160ff021916908315150217905550565b60606040518060400160405280601881526020017f564f4f444f4f205641554c542042524f4b454e20504153530000000000000000815250905090565b606060006005805461098b906137af565b9050116109cd576040517f08c379a00000000000000000000000000000000000000000000000000000000081526004016109c49061382d565b60405180910390fd5b60008214610a10576040517f08c379a0000000000000000000000000000000000000000000000000000000008152600401610a0790613899565b60405180910390fd5b6005610a1b83611722565b604051602001610a2c929190613989565b6040516020818303038152906040529050919050565b6000600454905090565b610a5461171a565b73ffffffffffffffffffffffffffffffffffffffff168573ffffffffffffffffffffffffffffffffffffffff161480610a9a5750610a9985610a9461171a565b6113ad565b5b610ad9576040517f08c379a0000000000000000000000000000000000000000000000000000000008152600401610ad090613a1f565b60405180910390fd5b610ae68585858585611883565b5050505050565b611e6181565b610afb61171a565b73ffffffffffffffffffffffffffffffffffffffff16610b19610ecc565b73ffffffffffffffffffffffffffffffffffffffff1614610b6f576040517f08c379a0000000000000000000000000000000000000000000000000000000008152600401610b6690613760565b60405180910390fd5b6000479050600760009054906101000a900473ffffffffffffffffffffffffffffffffffffffff1673ffffffffffffffffffffffffffffffffffffffff166108fc6064601184610bbf9190613a6e565b610bc99190613af7565b9081150290604051600060405180830381858888f19350505050158015610bf4573d6000803e3d6000fd5b50600660009054906101000a900473ffffffffffffffffffffffffffffffffffffffff1673ffffffffffffffffffffffffffffffffffffffff166108fc6064605384610c409190613a6e565b610c4a9190613af7565b9081150290604051600060405180830381858888f19350505050158015610c75573d6000803e3d6000fd5b5050565b60608151835114610cbf576040517f08c379a0000000000000000000000000000000000000000000000000000000008152600401610cb690613b9a565b60405180910390fd5b6000835167ffffffffffffffff811115610cdc57610cdb612e80565b5b604051908082528060200260200182016040528015610d0a5781602001602082028036833780820191505090505b50905060005b8451811015610d8757610d57858281518110610d2f57610d2e613bba565b5b6020026020010151858381518110610d4a57610d49613bba565b5b60200260200101516106ea565b828281518110610d6a57610d69613bba565b5b60200260200101818152505080610d8090613be9565b9050610d10565b508091505092915050565b606481565b600a81565b665fec5b60ef800081565b610daf61171a565b73ffffffffffffffffffffffffffffffffffffffff168373ffffffffffffffffffffffffffffffffffffffff161480610df55750610df483610def61171a565b6113ad565b5b610e34576040517f08c379a0000000000000000000000000000000000000000000000000000000008152600401610e2b90613ca4565b60405180910390fd5b610e3f838383611b97565b505050565b610e4c61171a565b73ffffffffffffffffffffffffffffffffffffffff16610e6a610ecc565b73ffffffffffffffffffffffffffffffffffffffff1614610ec0576040517f08c379a0000000000000000000000000000000000000000000000000000000008152600401610eb790613760565b60405180910390fd5b610eca6000611e48565b565b6000600360009054906101000a900473ffffffffffffffffffffffffffffffffffffffff16905090565b60606040518060400160405280600681526020017f565642524b4e0000000000000000000000000000000000000000000000000000815250905090565b610f3b61171a565b73ffffffffffffffffffffffffffffffffffffffff16610f59610ecc565b73ffffffffffffffffffffffffffffffffffffffff1614610faf576040517f08c379a0000000000000000000000000000000000000000000000000000000008152600401610fa690613760565b60405180910390fd5b6001600760156101000a81548160ff021916908315150217905550565b610fd461171a565b73ffffffffffffffffffffffffffffffffffffffff16610ff2610ecc565b73ffffffffffffffffffffffffffffffffffffffff1614611048576040517f08c379a000000000000000000000000000000000000000000000000000000000815260040161103f90613760565b60405180910390fd5b611e61606460045461105a9190613cc4565b111561109b576040517f08c379a000000000000000000000000000000000000000000000000000000000815260040161109290613d66565b60405180910390fd5b6064600460008282546110ae9190613cc4565b925050819055506110d2336000606460405180602001604052806000815250611f0e565b565b6110dc61171a565b73ffffffffffffffffffffffffffffffffffffffff166110fa610ecc565b73ffffffffffffffffffffffffffffffffffffffff1614611150576040517f08c379a000000000000000000000000000000000000000000000000000000000815260040161114790613760565b60405180910390fd5b600760159054906101000a900460ff16156111a0576040517f08c379a000000000000000000000000000000000000000000000000000000000815260040161119790613dd2565b60405180910390fd5b8181600591906111b1929190612b23565b505050565b6111c86111c161171a565b83836120a4565b5050565b6040518060400160405280601881526020017f564f4f444f4f205641554c542042524f4b454e2050415353000000000000000081525081565b600081565b600760159054906101000a900460ff1681565b600760149054906101000a900460ff1661126c576040517f08c379a000000000000000000000000000000000000000000000000000000000815260040161126390613e3e565b60405180910390fd5b60008111801561127d5750600a8111155b6112bc576040517f08c379a00000000000000000000000000000000000000000000000000000000081526004016112b390613ed0565b60405180910390fd5b611e61816004546112cd9190613cc4565b111561130e576040517f08c379a000000000000000000000000000000000000000000000000000000000815260040161130590613d66565b60405180910390fd5b3481665fec5b60ef80006113229190613a6e565b14611362576040517f08c379a000000000000000000000000000000000000000000000000000000000815260040161135990613f3c565b60405180910390fd5b80600460008282546113749190613cc4565b925050819055506113973360008360405180602001604052806000815250611f0e565b50565b600760149054906101000a900460ff1681565b6000600160008473ffffffffffffffffffffffffffffffffffffffff1673ffffffffffffffffffffffffffffffffffffffff16815260200190815260200160002060008373ffffffffffffffffffffffffffffffffffffffff1673ffffffffffffffffffffffffffffffffffffffff16815260200190815260200160002060009054906101000a900460ff16905092915050565b61144961171a565b73ffffffffffffffffffffffffffffffffffffffff168573ffffffffffffffffffffffffffffffffffffffff16148061148f575061148e8561148961171a565b6113ad565b5b6114ce576040517f08c379a00000000000000000000000000000000000000000000000000000000081526004016114c590613ca4565b60405180910390fd5b6114db8585858585612211565b5050505050565b6114ea61171a565b73ffffffffffffffffffffffffffffffffffffffff16611508610ecc565b73ffffffffffffffffffffffffffffffffffffffff161461155e576040517f08c379a000000000000000000000000000000000000000000000000000000000815260040161155590613760565b60405180910390fd5b600073ffffffffffffffffffffffffffffffffffffffff168173ffffffffffffffffffffffffffffffffffffffff1614156115ce576040517f08c379a00000000000000000000000000000000000000000000000000000000081526004016115c590613fce565b60405180910390fd5b6115d781611e48565b50565b6115e261171a565b73ffffffffffffffffffffffffffffffffffffffff168373ffffffffffffffffffffffffffffffffffffffff16148061162857506116278361162261171a565b6113ad565b5b611667576040517f08c379a000000000000000000000000000000000000000000000000000000000815260040161165e90613ca4565b60405180910390fd5b611672838383612493565b505050565b6040518060400160405280600681526020017f565642524b4e000000000000000000000000000000000000000000000000000081525081565b60007f01ffc9a7000000000000000000000000000000000000000000000000000000007bffffffffffffffffffffffffffffffffffffffffffffffffffffffff1916827bffffffffffffffffffffffffffffffffffffffffffffffffffffffff1916149050919050565b600033905090565b6060600082141561176a576040518060400160405280600181526020017f3000000000000000000000000000000000000000000000000000000000000000815250905061187e565b600082905060005b6000821461179c57808061178590613be9565b915050600a826117959190613af7565b9150611772565b60008167ffffffffffffffff8111156117b8576117b7612e80565b5b6040519080825280601f01601f1916602001820160405280156117ea5781602001600182028036833780820191505090505b5090505b60008514611877576001826118039190613fee565b9150600a856118129190614022565b603061181e9190613cc4565b60f81b81838151811061183457611833613bba565b5b60200101907effffffffffffffffffffffffffffffffffffffffffffffffffffffffffffff1916908160001a905350600a856118709190613af7565b94506117ee565b8093505050505b919050565b81518351146118c7576040517f08c379a00000000000000000000000000000000000000000000000000000000081526004016118be906140c5565b60405180910390fd5b600073ffffffffffffffffffffffffffffffffffffffff168473ffffffffffffffffffffffffffffffffffffffff161415611937576040517f08c379a000000000000000000000000000000000000000000000000000000000815260040161192e90614157565b60405180910390fd5b600061194161171a565b90506119518187878787876126b0565b60005b8451811015611b0257600085828151811061197257611971613bba565b5b60200260200101519050600085838151811061199157611990613bba565b5b60200260200101519050600080600084815260200190815260200160002060008b73ffffffffffffffffffffffffffffffffffffffff1673ffffffffffffffffffffffffffffffffffffffff16815260200190815260200160002054905081811015611a32576040517f08c379a0000000000000000000000000000000000000000000000000000000008152600401611a29906141e9565b60405180910390fd5b81810360008085815260200190815260200160002060008c73ffffffffffffffffffffffffffffffffffffffff1673ffffffffffffffffffffffffffffffffffffffff168152602001908152602001600020819055508160008085815260200190815260200160002060008b73ffffffffffffffffffffffffffffffffffffffff1673ffffffffffffffffffffffffffffffffffffffff1681526020019081526020016000206000828254611ae79190613cc4565b9250508190555050505080611afb90613be9565b9050611954565b508473ffffffffffffffffffffffffffffffffffffffff168673ffffffffffffffffffffffffffffffffffffffff168273ffffffffffffffffffffffffffffffffffffffff167f4a39dc06d4c0dbc64b70af90fd698a233a518aa5d07e595d983b8c0526c8f7fb8787604051611b79929190614209565b60405180910390a4611b8f8187878787876126b8565b505050505050565b600073ffffffffffffffffffffffffffffffffffffffff168373ffffffffffffffffffffffffffffffffffffffff161415611c07576040517f08c379a0000000000000000000000000000000000000000000000000000000008152600401611bfe906142b2565b60405180910390fd5b8051825114611c4b576040517f08c379a0000000000000000000000000000000000000000000000000000000008152600401611c42906140c5565b60405180910390fd5b6000611c5561171a565b9050611c75818560008686604051806020016040528060008152506126b0565b60005b8351811015611dc2576000848281518110611c9657611c95613bba565b5b602002602001015190506000848381518110611cb557611cb4613bba565b5b60200260200101519050600080600084815260200190815260200160002060008973ffffffffffffffffffffffffffffffffffffffff1673ffffffffffffffffffffffffffffffffffffffff16815260200190815260200160002054905081811015611d56576040517f08c379a0000000000000000000000000000000000000000000000000000000008152600401611d4d90614344565b60405180910390fd5b81810360008085815260200190815260200160002060008a73ffffffffffffffffffffffffffffffffffffffff1673ffffffffffffffffffffffffffffffffffffffff168152602001908152602001600020819055505050508080611dba90613be9565b915050611c78565b50600073ffffffffffffffffffffffffffffffffffffffff168473ffffffffffffffffffffffffffffffffffffffff168273ffffffffffffffffffffffffffffffffffffffff167f4a39dc06d4c0dbc64b70af90fd698a233a518aa5d07e595d983b8c0526c8f7fb8686604051611e3a929190614209565b60405180910390a450505050565b6000600360009054906101000a900473ffffffffffffffffffffffffffffffffffffffff16905081600360006101000a81548173ffffffffffffffffffffffffffffffffffffffff021916908373ffffffffffffffffffffffffffffffffffffffff1602179055508173ffffffffffffffffffffffffffffffffffffffff168173ffffffffffffffffffffffffffffffffffffffff167f8be0079c531659141344cd1fd0a4f28419497f9722a3daafe3b4186f6b6457e060405160405180910390a35050565b600073ffffffffffffffffffffffffffffffffffffffff168473ffffffffffffffffffffffffffffffffffffffff161415611f7e576040517f08c379a0000000000000000000000000000000000000000000000000000000008152600401611f75906143d6565b60405180910390fd5b6000611f8861171a565b9050611fa981600087611f9a8861289f565b611fa38861289f565b876126b0565b8260008086815260200190815260200160002060008773ffffffffffffffffffffffffffffffffffffffff1673ffffffffffffffffffffffffffffffffffffffff16815260200190815260200160002060008282546120089190613cc4565b925050819055508473ffffffffffffffffffffffffffffffffffffffff16600073ffffffffffffffffffffffffffffffffffffffff168273ffffffffffffffffffffffffffffffffffffffff167fc3d58168c5ae7397731d063d5bbf3d657854427343f4c083240f7aacaa2d0f6287876040516120869291906143f6565b60405180910390a461209d81600087878787612919565b5050505050565b8173ffffffffffffffffffffffffffffffffffffffff168373ffffffffffffffffffffffffffffffffffffffff161415612113576040517f08c379a000000000000000000000000000000000000000000000000000000000815260040161210a90614491565b60405180910390fd5b80600160008573ffffffffffffffffffffffffffffffffffffffff1673ffffffffffffffffffffffffffffffffffffffff16815260200190815260200160002060008473ffffffffffffffffffffffffffffffffffffffff1673ffffffffffffffffffffffffffffffffffffffff16815260200190815260200160002060006101000a81548160ff0219169083151502179055508173ffffffffffffffffffffffffffffffffffffffff168373ffffffffffffffffffffffffffffffffffffffff167f17307eab39ab6107e8899845ad3d59bd9653f200f220920489ca2b5937696c31836040516122049190612d78565b60405180910390a3505050565b600073ffffffffffffffffffffffffffffffffffffffff168473ffffffffffffffffffffffffffffffffffffffff161415612281576040517f08c379a000000000000000000000000000000000000000000000000000000000815260040161227890614157565b60405180910390fd5b600061228b61171a565b90506122ab81878761229c8861289f565b6122a58861289f565b876126b0565b600080600086815260200190815260200160002060008873ffffffffffffffffffffffffffffffffffffffff1673ffffffffffffffffffffffffffffffffffffffff16815260200190815260200160002054905083811015612342576040517f08c379a0000000000000000000000000000000000000000000000000000000008152600401612339906141e9565b60405180910390fd5b83810360008087815260200190815260200160002060008973ffffffffffffffffffffffffffffffffffffffff1673ffffffffffffffffffffffffffffffffffffffff168152602001908152602001600020819055508360008087815260200190815260200160002060008873ffffffffffffffffffffffffffffffffffffffff1673ffffffffffffffffffffffffffffffffffffffff16815260200190815260200160002060008282546123f79190613cc4565b925050819055508573ffffffffffffffffffffffffffffffffffffffff168773ffffffffffffffffffffffffffffffffffffffff168373ffffffffffffffffffffffffffffffffffffffff167fc3d58168c5ae7397731d063d5bbf3d657854427343f4c083240f7aacaa2d0f6288886040516124749291906143f6565b60405180910390a461248a828888888888612919565b50505050505050565b600073ffffffffffffffffffffffffffffffffffffffff168373ffffffffffffffffffffffffffffffffffffffff161415612503576040517f08c379a00000000000000000000000000000000000000000000000000000000081526004016124fa906142b2565b60405180910390fd5b600061250d61171a565b905061253d8185600061251f8761289f565b6125288761289f565b604051806020016040528060008152506126b0565b600080600085815260200190815260200160002060008673ffffffffffffffffffffffffffffffffffffffff1673ffffffffffffffffffffffffffffffffffffffff168152602001908152602001600020549050828110156125d4576040517f08c379a00000000000000000000000000000000000000000000000000000000081526004016125cb90614344565b60405180910390fd5b82810360008086815260200190815260200160002060008773ffffffffffffffffffffffffffffffffffffffff1673ffffffffffffffffffffffffffffffffffffffff16815260200190815260200160002081905550600073ffffffffffffffffffffffffffffffffffffffff168573ffffffffffffffffffffffffffffffffffffffff168373ffffffffffffffffffffffffffffffffffffffff167fc3d58168c5ae7397731d063d5bbf3d657854427343f4c083240f7aacaa2d0f6287876040516126a19291906143f6565b60405180910390a45050505050565b505050505050565b6126d78473ffffffffffffffffffffffffffffffffffffffff16612b00565b15612897578373ffffffffffffffffffffffffffffffffffffffff1663bc197c8187878686866040518663ffffffff1660e01b815260040161271d959493929190614506565b602060405180830381600087803b15801561273757600080fd5b505af192505050801561276857506040513d601f19601f820116820180604052508101906127659190614583565b60015b61280e576127746145bd565b806308c379a014156127d157506127896145df565b8061279457506127d3565b806040517f08c379a00000000000000000000000000000000000000000000000000000000081526004016127c89190612e2c565b60405180910390fd5b505b6040517f08c379a0000000000000000000000000000000000000000000000000000000008152600401612805906146e7565b60405180910390fd5b63bc197c8160e01b7bffffffffffffffffffffffffffffffffffffffffffffffffffffffff1916817bffffffffffffffffffffffffffffffffffffffffffffffffffffffff191614612895576040517f08c379a000000000000000000000000000000000000000000000000000000000815260040161288c90614779565b60405180910390fd5b505b505050505050565b60606000600167ffffffffffffffff8111156128be576128bd612e80565b5b6040519080825280602002602001820160405280156128ec5781602001602082028036833780820191505090505b509050828160008151811061290457612903613bba565b5b60200260200101818152505080915050919050565b6129388473ffffffffffffffffffffffffffffffffffffffff16612b00565b15612af8578373ffffffffffffffffffffffffffffffffffffffff1663f23a6e6187878686866040518663ffffffff1660e01b815260040161297e959493929190614799565b602060405180830381600087803b15801561299857600080fd5b505af19250505080156129c957506040513d601f19601f820116820180604052508101906129c69190614583565b60015b612a6f576129d56145bd565b806308c379a01415612a3257506129ea6145df565b806129f55750612a34565b806040517f08c379a0000000000000000000000000000000000000000000000000000000008152600401612a299190612e2c565b60405180910390fd5b505b6040517f08c379a0000000000000000000000000000000000000000000000000000000008152600401612a66906146e7565b60405180910390fd5b63f23a6e6160e01b7bffffffffffffffffffffffffffffffffffffffffffffffffffffffff1916817bffffffffffffffffffffffffffffffffffffffffffffffffffffffff191614612af6576040517f08c379a0000000000000000000000000000000000000000000000000000000008152600401612aed90614779565b60405180910390fd5b505b505050505050565b6000808273ffffffffffffffffffffffffffffffffffffffff163b119050919050565b828054612b2f906137af565b90600052602060002090601f016020900481019282612b515760008555612b98565b82601f10612b6a57803560ff1916838001178555612b98565b82800160010185558215612b98579182015b82811115612b97578235825591602001919060010190612b7c565b5b509050612ba59190612ba9565b5090565b5b80821115612bc2576000816000905550600101612baa565b5090565b6000604051905090565b600080fd5b600080fd5b600073ffffffffffffffffffffffffffffffffffffffff82169050919050565b6000612c0582612bda565b9050919050565b612c1581612bfa565b8114612c2057600080fd5b50565b600081359050612c3281612c0c565b92915050565b6000819050919050565b612c4b81612c38565b8114612c5657600080fd5b50565b600081359050612c6881612c42565b92915050565b60008060408385031215612c8557612c84612bd0565b5b6000612c9385828601612c23565b9250506020612ca485828601612c59565b9150509250929050565b612cb781612c38565b82525050565b6000602082019050612cd26000830184612cae565b92915050565b60007fffffffff0000000000000000000000000000000000000000000000000000000082169050919050565b612d0d81612cd8565b8114612d1857600080fd5b50565b600081359050612d2a81612d04565b92915050565b600060208284031215612d4657612d45612bd0565b5b6000612d5484828501612d1b565b91505092915050565b60008115159050919050565b612d7281612d5d565b82525050565b6000602082019050612d8d6000830184612d69565b92915050565b600081519050919050565b600082825260208201905092915050565b60005b83811015612dcd578082015181840152602081019050612db2565b83811115612ddc576000848401525b50505050565b6000601f19601f8301169050919050565b6000612dfe82612d93565b612e088185612d9e565b9350612e18818560208601612daf565b612e2181612de2565b840191505092915050565b60006020820190508181036000830152612e468184612df3565b905092915050565b600060208284031215612e6457612e63612bd0565b5b6000612e7284828501612c59565b91505092915050565b600080fd5b7f4e487b7100000000000000000000000000000000000000000000000000000000600052604160045260246000fd5b612eb882612de2565b810181811067ffffffffffffffff82111715612ed757612ed6612e80565b5b80604052505050565b6000612eea612bc6565b9050612ef68282612eaf565b919050565b600067ffffffffffffffff821115612f1657612f15612e80565b5b602082029050602081019050919050565b600080fd5b6000612f3f612f3a84612efb565b612ee0565b90508083825260208201905060208402830185811115612f6257612f61612f27565b5b835b81811015612f8b5780612f778882612c59565b845260208401935050602081019050612f64565b5050509392505050565b600082601f830112612faa57612fa9612e7b565b5b8135612fba848260208601612f2c565b91505092915050565b600080fd5b600067ffffffffffffffff821115612fe357612fe2612e80565b5b612fec82612de2565b9050602081019050919050565b82818337600083830152505050565b600061301b61301684612fc8565b612ee0565b90508281526020810184848401111561303757613036612fc3565b5b613042848285612ff9565b509392505050565b600082601f83011261305f5761305e612e7b565b5b813561306f848260208601613008565b91505092915050565b600080600080600060a0868803121561309457613093612bd0565b5b60006130a288828901612c23565b95505060206130b388828901612c23565b945050604086013567ffffffffffffffff8111156130d4576130d3612bd5565b5b6130e088828901612f95565b935050606086013567ffffffffffffffff81111561310157613100612bd5565b5b61310d88828901612f95565b925050608086013567ffffffffffffffff81111561312e5761312d612bd5565b5b61313a8882890161304a565b9150509295509295909350565b600067ffffffffffffffff82111561316257613161612e80565b5b602082029050602081019050919050565b600061318661318184613147565b612ee0565b905080838252602082019050602084028301858111156131a9576131a8612f27565b5b835b818110156131d257806131be8882612c23565b8452602084019350506020810190506131ab565b5050509392505050565b600082601f8301126131f1576131f0612e7b565b5b8135613201848260208601613173565b91505092915050565b6000806040838503121561322157613220612bd0565b5b600083013567ffffffffffffffff81111561323f5761323e612bd5565b5b61324b858286016131dc565b925050602083013567ffffffffffffffff81111561326c5761326b612bd5565b5b61327885828601612f95565b9150509250929050565b600081519050919050565b600082825260208201905092915050565b6000819050602082019050919050565b6132b781612c38565b82525050565b60006132c983836132ae565b60208301905092915050565b6000602082019050919050565b60006132ed82613282565b6132f7818561328d565b93506133028361329e565b8060005b8381101561333357815161331a88826132bd565b9750613325836132d5565b925050600181019050613306565b5085935050505092915050565b6000602082019050818103600083015261335a81846132e2565b905092915050565b60008060006060848603121561337b5761337a612bd0565b5b600061338986828701612c23565b935050602084013567ffffffffffffffff8111156133aa576133a9612bd5565b5b6133b686828701612f95565b925050604084013567ffffffffffffffff8111156133d7576133d6612bd5565b5b6133e386828701612f95565b9150509250925092565b6133f681612bfa565b82525050565b600060208201905061341160008301846133ed565b92915050565b600080fd5b60008083601f84011261343257613431612e7b565b5b8235905067ffffffffffffffff81111561344f5761344e613417565b5b60208301915083600182028301111561346b5761346a612f27565b5b9250929050565b6000806020838503121561348957613488612bd0565b5b600083013567ffffffffffffffff8111156134a7576134a6612bd5565b5b6134b38582860161341c565b92509250509250929050565b6134c881612d5d565b81146134d357600080fd5b50565b6000813590506134e5816134bf565b92915050565b6000806040838503121561350257613501612bd0565b5b600061351085828601612c23565b9250506020613521858286016134d6565b9150509250929050565b6000806040838503121561354257613541612bd0565b5b600061355085828601612c23565b925050602061356185828601612c23565b9150509250929050565b600080600080600060a0868803121561358757613586612bd0565b5b600061359588828901612c23565b95505060206135a688828901612c23565b94505060406135b788828901612c59565b93505060606135c888828901612c59565b925050608086013567ffffffffffffffff8111156135e9576135e8612bd5565b5b6135f58882890161304a565b9150509295509295909350565b60006020828403121561361857613617612bd0565b5b600061362684828501612c23565b91505092915050565b60008060006060848603121561364857613647612bd0565b5b600061365686828701612c23565b935050602061366786828701612c59565b925050604061367886828701612c59565b9150509250925092565b7f455243313135353a2062616c616e636520717565727920666f7220746865207a60008201527f65726f2061646472657373000000000000000000000000000000000000000000602082015250565b60006136de602b83612d9e565b91506136e982613682565b604082019050919050565b6000602082019050818103600083015261370d816136d1565b9050919050565b7f4f776e61626c653a2063616c6c6572206973206e6f7420746865206f776e6572600082015250565b600061374a602083612d9e565b915061375582613714565b602082019050919050565b600060208201905081810360008301526137798161373d565b9050919050565b7f4e487b7100000000000000000000000000000000000000000000000000000000600052602260045260246000fd5b600060028204905060018216806137c757607f821691505b602082108114156137db576137da613780565b5b50919050565b7f4241534520555249204e4f542053455400000000000000000000000000000000600082015250565b6000613817601083612d9e565b9150613822826137e1565b602082019050919050565b600060208201905081810360008301526138468161380a565b9050919050565b7f5552493a206e6f6e6578697374656e7420746f6b656e00000000000000000000600082015250565b6000613883601683612d9e565b915061388e8261384d565b602082019050919050565b600060208201905081810360008301526138b281613876565b9050919050565b600081905092915050565b60008190508160005260206000209050919050565b600081546138e6816137af565b6138f081866138b9565b9450600182166000811461390b576001811461391c5761394f565b60ff1983168652818601935061394f565b613925856138c4565b60005b8381101561394757815481890152600182019150602081019050613928565b838801955050505b50505092915050565b600061396382612d93565b61396d81856138b9565b935061397d818560208601612daf565b80840191505092915050565b600061399582856138d9565b91506139a18284613958565b91508190509392505050565b7f455243313135353a207472616e736665722063616c6c6572206973206e6f742060008201527f6f776e6572206e6f7220617070726f7665640000000000000000000000000000602082015250565b6000613a09603283612d9e565b9150613a14826139ad565b604082019050919050565b60006020820190508181036000830152613a38816139fc565b9050919050565b7f4e487b7100000000000000000000000000000000000000000000000000000000600052601160045260246000fd5b6000613a7982612c38565b9150613a8483612c38565b9250817fffffffffffffffffffffffffffffffffffffffffffffffffffffffffffffffff0483118215151615613abd57613abc613a3f565b5b828202905092915050565b7f4e487b7100000000000000000000000000000000000000000000000000000000600052601260045260246000fd5b6000613b0282612c38565b9150613b0d83612c38565b925082613b1d57613b1c613ac8565b5b828204905092915050565b7f455243313135353a206163636f756e747320616e6420696473206c656e67746860008201527f206d69736d617463680000000000000000000000000000000000000000000000602082015250565b6000613b84602983612d9e565b9150613b8f82613b28565b604082019050919050565b60006020820190508181036000830152613bb381613b77565b9050919050565b7f4e487b7100000000000000000000000000000000000000000000000000000000600052603260045260246000fd5b6000613bf482612c38565b91507fffffffffffffffffffffffffffffffffffffffffffffffffffffffffffffffff821415613c2757613c26613a3f565b5b600182019050919050565b7f455243313135353a2063616c6c6572206973206e6f74206f776e6572206e6f7260008201527f20617070726f7665640000000000000000000000000000000000000000000000602082015250565b6000613c8e602983612d9e565b9150613c9982613c32565b604082019050919050565b60006020820190508181036000830152613cbd81613c81565b9050919050565b6000613ccf82612c38565b9150613cda83612c38565b9250827fffffffffffffffffffffffffffffffffffffffffffffffffffffffffffffffff03821115613d0f57613d0e613a3f565b5b828201905092915050565b7f4d41585f4d494e545f4143484945564544000000000000000000000000000000600082015250565b6000613d50601183612d9e565b9150613d5b82613d1a565b602082019050919050565b60006020820190508181036000830152613d7f81613d43565b9050919050565b7f436f6e7472616374206d65746164617461206973206c6f636b65640000000000600082015250565b6000613dbc601b83612d9e565b9150613dc782613d86565b602082019050919050565b60006020820190508181036000830152613deb81613daf565b9050919050565b7f53414c4520434c4f534544000000000000000000000000000000000000000000600082015250565b6000613e28600b83612d9e565b9150613e3382613df2565b602082019050919050565b60006020820190508181036000830152613e5781613e1b565b9050919050565b7f4d494e54204154204c45415354203120414e44204e4f54204d4f52452054484160008201527f4e20313020544f4b454e53000000000000000000000000000000000000000000602082015250565b6000613eba602b83612d9e565b9150613ec582613e5e565b604082019050919050565b60006020820190508181036000830152613ee981613ead565b9050919050565b7f494e434f5252454354205041594d454e5420414d4f554e542000000000000000600082015250565b6000613f26601983612d9e565b9150613f3182613ef0565b602082019050919050565b60006020820190508181036000830152613f5581613f19565b9050919050565b7f4f776e61626c653a206e6577206f776e657220697320746865207a65726f206160008201527f6464726573730000000000000000000000000000000000000000000000000000602082015250565b6000613fb8602683612d9e565b9150613fc382613f5c565b604082019050919050565b60006020820190508181036000830152613fe781613fab565b9050919050565b6000613ff982612c38565b915061400483612c38565b92508282101561401757614016613a3f565b5b828203905092915050565b600061402d82612c38565b915061403883612c38565b92508261404857614047613ac8565b5b828206905092915050565b7f455243313135353a2069647320616e6420616d6f756e7473206c656e6774682060008201527f6d69736d61746368000000000000000000000000000000000000000000000000602082015250565b60006140af602883612d9e565b91506140ba82614053565b604082019050919050565b600060208201905081810360008301526140de816140a2565b9050919050565b7f455243313135353a207472616e7366657220746f20746865207a65726f20616460008201527f6472657373000000000000000000000000000000000000000000000000000000602082015250565b6000614141602583612d9e565b915061414c826140e5565b604082019050919050565b6000602082019050818103600083015261417081614134565b9050919050565b7f455243313135353a20696e73756666696369656e742062616c616e636520666f60008201527f72207472616e7366657200000000000000000000000000000000000000000000602082015250565b60006141d3602a83612d9e565b91506141de82614177565b604082019050919050565b60006020820190508181036000830152614202816141c6565b9050919050565b6000604082019050818103600083015261422381856132e2565b9050818103602083015261423781846132e2565b90509392505050565b7f455243313135353a206275726e2066726f6d20746865207a65726f206164647260008201527f6573730000000000000000000000000000000000000000000000000000000000602082015250565b600061429c602383612d9e565b91506142a782614240565b604082019050919050565b600060208201905081810360008301526142cb8161428f565b9050919050565b7f455243313135353a206275726e20616d6f756e7420657863656564732062616c60008201527f616e636500000000000000000000000000000000000000000000000000000000602082015250565b600061432e602483612d9e565b9150614339826142d2565b604082019050919050565b6000602082019050818103600083015261435d81614321565b9050919050565b7f455243313135353a206d696e7420746f20746865207a65726f2061646472657360008201527f7300000000000000000000000000000000000000000000000000000000000000602082015250565b60006143c0602183612d9e565b91506143cb82614364565b604082019050919050565b600060208201905081810360008301526143ef816143b3565b9050919050565b600060408201905061440b6000830185612cae565b6144186020830184612cae565b9392505050565b7f455243313135353a2073657474696e6720617070726f76616c2073746174757360008201527f20666f722073656c660000000000000000000000000000000000000000000000602082015250565b600061447b602983612d9e565b91506144868261441f565b604082019050919050565b600060208201905081810360008301526144aa8161446e565b9050919050565b600081519050919050565b600082825260208201905092915050565b60006144d8826144b1565b6144e281856144bc565b93506144f2818560208601612daf565b6144fb81612de2565b840191505092915050565b600060a08201905061451b60008301886133ed565b61452860208301876133ed565b818103604083015261453a81866132e2565b9050818103606083015261454e81856132e2565b9050818103608083015261456281846144cd565b90509695505050505050565b60008151905061457d81612d04565b92915050565b60006020828403121561459957614598612bd0565b5b60006145a78482850161456e565b91505092915050565b60008160e01c9050919050565b600060033d11156145dc5760046000803e6145d96000516145b0565b90505b90565b600060443d10156145ef57614672565b6145f7612bc6565b60043d036004823e80513d602482011167ffffffffffffffff8211171561461f575050614672565b808201805167ffffffffffffffff81111561463d5750505050614672565b80602083010160043d03850181111561465a575050505050614672565b61466982602001850186612eaf565b82955050505050505b90565b7f455243313135353a207472616e7366657220746f206e6f6e204552433131353560008201527f526563656976657220696d706c656d656e746572000000000000000000000000602082015250565b60006146d1603483612d9e565b91506146dc82614675565b604082019050919050565b60006020820190508181036000830152614700816146c4565b9050919050565b7f455243313135353a204552433131353552656365697665722072656a6563746560008201527f6420746f6b656e73000000000000000000000000000000000000000000000000602082015250565b6000614763602883612d9e565b915061476e82614707565b604082019050919050565b6000602082019050818103600083015261479281614756565b9050919050565b600060a0820190506147ae60008301886133ed565b6147bb60208301876133ed565b6147c86040830186612cae565b6147d56060830185612cae565b81810360808301526147e781846144cd565b9050969550505050505056fea26469706673582212205bff52c82c855ddf40ca6de51ae977d94746f327e455c77588bfa1dce9380c9e64736f6c63430008090033",
  "linkReferences": {},
  "deployedLinkReferences": {}
}