{
  "_format": "hh-sol-artifact-1",
  "contractName": "VoodooVaultAniversaryEdition",
  "sourceName": "contracts/VoodooVaultAniversaryEdition.sol",
  "abi": [
    {
      "inputs": [
        {
          "internalType": "string",
          "name": "_baseURI",
          "type": "string"
        }
      ],
      "stateMutability": "nonpayable",
      "type": "constructor"
    },
    {
      "anonymous": false,
      "inputs": [
        {
          "indexed": true,
          "internalType": "address",
          "name": "account",
          "type": "address"
        },
        {
          "indexed": true,
          "internalType": "address",
          "name": "operator",
          "type": "address"
        },
        {
          "indexed": false,
          "internalType": "bool",
          "name": "approved",
          "type": "bool"
        }
      ],
      "name": "ApprovalForAll",
      "type": "event"
    },
    {
      "anonymous": false,
      "inputs": [
        {
          "indexed": true,
          "internalType": "address",
          "name": "previousOwner",
          "type": "address"
        },
        {
          "indexed": true,
          "internalType": "address",
          "name": "newOwner",
          "type": "address"
        }
      ],
      "name": "OwnershipTransferred",
      "type": "event"
    },
    {
      "anonymous": false,
      "inputs": [
        {
          "indexed": true,
          "internalType": "address",
          "name": "operator",
          "type": "address"
        },
        {
          "indexed": true,
          "internalType": "address",
          "name": "from",
          "type": "address"
        },
        {
          "indexed": true,
          "internalType": "address",
          "name": "to",
          "type": "address"
        },
        {
          "indexed": false,
          "internalType": "uint256[]",
          "name": "ids",
          "type": "uint256[]"
        },
        {
          "indexed": false,
          "internalType": "uint256[]",
          "name": "values",
          "type": "uint256[]"
        }
      ],
      "name": "TransferBatch",
      "type": "event"
    },
    {
      "anonymous": false,
      "inputs": [
        {
          "indexed": true,
          "internalType": "address",
          "name": "operator",
          "type": "address"
        },
        {
          "indexed": true,
          "internalType": "address",
          "name": "from",
          "type": "address"
        },
        {
          "indexed": true,
          "internalType": "address",
          "name": "to",
          "type": "address"
        },
        {
          "indexed": false,
          "internalType": "uint256",
          "name": "id",
          "type": "uint256"
        },
        {
          "indexed": false,
          "internalType": "uint256",
          "name": "value",
          "type": "uint256"
        }
      ],
      "name": "TransferSingle",
      "type": "event"
    },
    {
      "anonymous": false,
      "inputs": [
        {
          "indexed": false,
          "internalType": "string",
          "name": "value",
          "type": "string"
        },
        {
          "indexed": true,
          "internalType": "uint256",
          "name": "id",
          "type": "uint256"
        }
      ],
      "name": "URI",
      "type": "event"
    },
    {
      "inputs": [],
      "name": "MAX_SUPPLY",
      "outputs": [
        {
          "internalType": "uint256",
          "name": "",
          "type": "uint256"
        }
      ],
      "stateMutability": "view",
      "type": "function"
    },
    {
      "inputs": [],
      "name": "NAME",
      "outputs": [
        {
          "internalType": "string",
          "name": "",
          "type": "string"
        }
      ],
      "stateMutability": "view",
      "type": "function"
    },
    {
      "inputs": [],
      "name": "SYMBOL",
      "outputs": [
        {
          "internalType": "string",
          "name": "",
          "type": "string"
        }
      ],
      "stateMutability": "view",
      "type": "function"
    },
    {
      "inputs": [
        {
          "internalType": "address",
          "name": "account",
          "type": "address"
        },
        {
          "internalType": "uint256",
          "name": "id",
          "type": "uint256"
        }
      ],
      "name": "balanceOf",
      "outputs": [
        {
          "internalType": "uint256",
          "name": "",
          "type": "uint256"
        }
      ],
      "stateMutability": "view",
      "type": "function"
    },
    {
      "inputs": [
        {
          "internalType": "address[]",
          "name": "accounts",
          "type": "address[]"
        },
        {
          "internalType": "uint256[]",
          "name": "ids",
          "type": "uint256[]"
        }
      ],
      "name": "balanceOfBatch",
      "outputs": [
        {
          "internalType": "uint256[]",
          "name": "",
          "type": "uint256[]"
        }
      ],
      "stateMutability": "view",
      "type": "function"
    },
    {
      "inputs": [
        {
          "internalType": "address",
          "name": "account",
          "type": "address"
        },
        {
          "internalType": "uint256",
          "name": "id",
          "type": "uint256"
        },
        {
          "internalType": "uint256",
          "name": "value",
          "type": "uint256"
        }
      ],
      "name": "burn",
      "outputs": [],
      "stateMutability": "nonpayable",
      "type": "function"
    },
    {
      "inputs": [
        {
          "internalType": "address",
          "name": "account",
          "type": "address"
        },
        {
          "internalType": "uint256[]",
          "name": "ids",
          "type": "uint256[]"
        },
        {
          "internalType": "uint256[]",
          "name": "values",
          "type": "uint256[]"
        }
      ],
      "name": "burnBatch",
      "outputs": [],
      "stateMutability": "nonpayable",
      "type": "function"
    },
    {
      "inputs": [],
      "name": "buy",
      "outputs": [],
      "stateMutability": "nonpayable",
      "type": "function"
    },
    {
      "inputs": [
        {
          "internalType": "uint256",
          "name": "newSupply",
          "type": "uint256"
        },
        {
          "internalType": "uint256",
          "name": "newId",
          "type": "uint256"
        }
      ],
      "name": "changeSupply",
      "outputs": [],
      "stateMutability": "nonpayable",
      "type": "function"
    },
    {
      "inputs": [
        {
          "internalType": "address",
          "name": "account",
          "type": "address"
        },
        {
          "internalType": "address",
          "name": "operator",
          "type": "address"
        }
      ],
      "name": "isApprovedForAll",
      "outputs": [
        {
          "internalType": "bool",
          "name": "",
          "type": "bool"
        }
      ],
      "stateMutability": "view",
      "type": "function"
    },
    {
      "inputs": [],
      "name": "lockMetadata",
      "outputs": [],
      "stateMutability": "nonpayable",
      "type": "function"
    },
    {
      "inputs": [],
      "name": "locked",
      "outputs": [
        {
          "internalType": "bool",
          "name": "",
          "type": "bool"
        }
      ],
      "stateMutability": "view",
      "type": "function"
    },
    {
      "inputs": [],
      "name": "maxTokenID",
      "outputs": [
        {
          "internalType": "uint256",
          "name": "",
          "type": "uint256"
        }
      ],
      "stateMutability": "view",
      "type": "function"
    },
    {
      "inputs": [],
      "name": "name",
      "outputs": [
        {
          "internalType": "string",
          "name": "",
          "type": "string"
        }
      ],
      "stateMutability": "pure",
      "type": "function"
    },
    {
      "inputs": [],
      "name": "owner",
      "outputs": [
        {
          "internalType": "address",
          "name": "",
          "type": "address"
        }
      ],
      "stateMutability": "view",
      "type": "function"
    },
    {
      "inputs": [],
      "name": "renounceOwnership",
      "outputs": [],
      "stateMutability": "nonpayable",
      "type": "function"
    },
    {
      "inputs": [
        {
          "internalType": "address",
          "name": "from",
          "type": "address"
        },
        {
          "internalType": "address",
          "name": "to",
          "type": "address"
        },
        {
          "internalType": "uint256[]",
          "name": "ids",
          "type": "uint256[]"
        },
        {
          "internalType": "uint256[]",
          "name": "amounts",
          "type": "uint256[]"
        },
        {
          "internalType": "bytes",
          "name": "data",
          "type": "bytes"
        }
      ],
      "name": "safeBatchTransferFrom",
      "outputs": [],
      "stateMutability": "nonpayable",
      "type": "function"
    },
    {
      "inputs": [
        {
          "internalType": "address",
          "name": "from",
          "type": "address"
        },
        {
          "internalType": "address",
          "name": "to",
          "type": "address"
        },
        {
          "internalType": "uint256",
          "name": "id",
          "type": "uint256"
        },
        {
          "internalType": "uint256",
          "name": "amount",
          "type": "uint256"
        },
        {
          "internalType": "bytes",
          "name": "data",
          "type": "bytes"
        }
      ],
      "name": "safeTransferFrom",
      "outputs": [],
      "stateMutability": "nonpayable",
      "type": "function"
    },
    {
      "inputs": [],
      "name": "saleLive",
      "outputs": [
        {
          "internalType": "bool",
          "name": "",
          "type": "bool"
        }
      ],
      "stateMutability": "view",
      "type": "function"
    },
    {
      "inputs": [
        {
          "internalType": "address",
          "name": "",
          "type": "address"
        }
      ],
      "name": "salePurchasesOfWallet",
      "outputs": [
        {
          "internalType": "bool",
          "name": "",
          "type": "bool"
        }
      ],
      "stateMutability": "view",
      "type": "function"
    },
    {
      "inputs": [
        {
          "internalType": "address",
          "name": "operator",
          "type": "address"
        },
        {
          "internalType": "bool",
          "name": "approved",
          "type": "bool"
        }
      ],
      "name": "setApprovalForAll",
      "outputs": [],
      "stateMutability": "nonpayable",
      "type": "function"
    },
    {
      "inputs": [
        {
          "internalType": "string",
          "name": "_baseURI",
          "type": "string"
        }
      ],
      "name": "setBaseUri",
      "outputs": [],
      "stateMutability": "nonpayable",
      "type": "function"
    },
    {
      "inputs": [
        {
          "internalType": "bytes4",
          "name": "interfaceId",
          "type": "bytes4"
        }
      ],
      "name": "supportsInterface",
      "outputs": [
        {
          "internalType": "bool",
          "name": "",
          "type": "bool"
        }
      ],
      "stateMutability": "view",
      "type": "function"
    },
    {
      "inputs": [],
      "name": "symbol",
      "outputs": [
        {
          "internalType": "string",
          "name": "",
          "type": "string"
        }
      ],
      "stateMutability": "pure",
      "type": "function"
    },
    {
      "inputs": [],
      "name": "toggleSaleStatus",
      "outputs": [],
      "stateMutability": "nonpayable",
      "type": "function"
    },
    {
      "inputs": [],
      "name": "tokenIdToMint",
      "outputs": [
        {
          "internalType": "uint256",
          "name": "",
          "type": "uint256"
        }
      ],
      "stateMutability": "view",
      "type": "function"
    },
    {
      "inputs": [],
      "name": "totalSupply",
      "outputs": [
        {
          "internalType": "uint256",
          "name": "",
          "type": "uint256"
        }
      ],
      "stateMutability": "view",
      "type": "function"
    },
    {
      "inputs": [
        {
          "internalType": "address",
          "name": "newOwner",
          "type": "address"
        }
      ],
      "name": "transferOwnership",
      "outputs": [],
      "stateMutability": "nonpayable",
      "type": "function"
    },
    {
      "inputs": [
        {
          "internalType": "uint256",
          "name": "id",
          "type": "uint256"
        }
      ],
      "name": "uri",
      "outputs": [
        {
          "internalType": "string",
          "name": "",
          "type": "string"
        }
      ],
      "stateMutability": "view",
      "type": "function"
    }
  ],
  "bytecode": "0x60806040526009805461ffff191690553480156200001c57600080fd5b5060405162002759380380620027598339810160408190526200003f91620001ab565b806200004b8162000084565b5062000057336200009d565b80516200006c906008906020840190620000ef565b50506101f460055560006006819055600755620002c4565b805162000099906002906020840190620000ef565b5050565b600380546001600160a01b038381166001600160a01b0319831681179093556040519116919082907f8be0079c531659141344cd1fd0a4f28419497f9722a3daafe3b4186f6b6457e090600090a35050565b828054620000fd9062000287565b90600052602060002090601f0160209004810192826200012157600085556200016c565b82601f106200013c57805160ff19168380011785556200016c565b828001600101855582156200016c579182015b828111156200016c5782518255916020019190600101906200014f565b506200017a9291506200017e565b5090565b5b808211156200017a57600081556001016200017f565b634e487b7160e01b600052604160045260246000fd5b60006020808385031215620001bf57600080fd5b82516001600160401b0380821115620001d757600080fd5b818501915085601f830112620001ec57600080fd5b81518181111562000201576200020162000195565b604051601f8201601f19908116603f011681019083821181831017156200022c576200022c62000195565b8160405282815288868487010111156200024557600080fd5b600093505b828410156200026957848401860151818501870152928501926200024a565b828411156200027b5760008684830101525b98975050505050505050565b600181811c908216806200029c57607f821691505b60208210811415620002be57634e487b7160e01b600052602260045260246000fd5b50919050565b61248580620002d46000396000f3fe608060405234801561001057600080fd5b50600436106101ce5760003560e01c806397901c8911610104578063b186c88b116100a2578063f242432a11610071578063f242432a1461042c578063f2fde38b1461043f578063f5298aca14610452578063f76f8d781461046557600080fd5b8063b186c88b146103c8578063cf309012146103d1578063e081b781146103e3578063e985e9c5146103f057600080fd5b8063a22cb465116100de578063a22cb4651461035e578063a3f4df7e14610371578063a6a53fe9146103ad578063a6f2ae3a146103c057600080fd5b806397901c8914610320578063989bdbb614610343578063a0bcfc7f1461034b57600080fd5b806332cb6b0c116101715780636b20c4541161014b5780636b20c454146102c8578063715018a6146102db5780638da5cb5b146102e357806395d89b41146102fe57600080fd5b806332cb6b0c146102965780634e1273f41461029f5780635a570c0c146102bf57600080fd5b806306fdde03116101ad57806306fdde03146102265780630e89341c1461026857806318160ddd1461027b5780632eb2c2d61461028357600080fd5b8062fdd58e146101d357806301ffc9a7146101f9578063049c5c491461021c575b600080fd5b6101e66101e13660046118c9565b61048a565b6040519081526020015b60405180910390f35b61020c610207366004611909565b610521565b60405190151581526020016101f0565b610224610573565b005b60408051808201909152601f81527f564f4f444f4f205641554c5420414e49564552534152592045444954494f4e0060208201525b6040516101f09190611989565b61025b61027636600461199c565b6105b1565b6004546101e6565b610224610291366004611b01565b610680565b6101e660055481565b6102b26102ad366004611bab565b610717565b6040516101f09190611cb1565b6101e660075481565b6102246102d6366004611cc4565b610841565b610224610889565b6003546040516001600160a01b0390911681526020016101f0565b6040805180820190915260068152652b2b20a72b2960d11b602082015261025b565b61020c61032e366004611d38565b600a6020526000908152604090205460ff1681565b6102246108bf565b610224610359366004611d53565b6108fa565b61022461036c366004611dc5565b610988565b61025b6040518060400160405280601f81526020017f564f4f444f4f205641554c5420414e49564552534152592045444954494f4e0081525081565b6102246103bb366004611e01565b610997565b610224610abe565b6101e660065481565b60095461020c90610100900460ff1681565b60095461020c9060ff1681565b61020c6103fe366004611e23565b6001600160a01b03918216600090815260016020908152604080832093909416825291909152205460ff1690565b61022461043a366004611e56565b610bf7565b61022461044d366004611d38565b610c3c565b610224610460366004611ebb565b610cd7565b61025b604051806040016040528060068152602001652b2b20a72b2960d11b81525081565b60006001600160a01b0383166104fb5760405162461bcd60e51b815260206004820152602b60248201527f455243313135353a2062616c616e636520717565727920666f7220746865207a60448201526a65726f206164647265737360a81b60648201526084015b60405180910390fd5b506000908152602081815260408083206001600160a01b03949094168352929052205490565b60006001600160e01b03198216636cdb3d1360e11b148061055257506001600160e01b031982166303a24d0760e21b145b8061056d57506301ffc9a760e01b6001600160e01b03198316145b92915050565b6003546001600160a01b0316331461059d5760405162461bcd60e51b81526004016104f290611eee565b6009805460ff19811660ff90911615179055565b60606000600880546105c290611f23565b9050116106045760405162461bcd60e51b815260206004820152601060248201526f109054d148155492481393d50814d15560821b60448201526064016104f2565b60075482111561064e5760405162461bcd60e51b81526020600482015260156024820152741513d2d153881251081393d38b51561254d5115395605a1b60448201526064016104f2565b600861065983610d1a565b60405160200161066a929190611f7a565b6040516020818303038152906040529050919050565b6001600160a01b03851633148061069c575061069c85336103fe565b6107035760405162461bcd60e51b815260206004820152603260248201527f455243313135353a207472616e736665722063616c6c6572206973206e6f74206044820152711bdddb995c881b9bdc88185c1c1c9bdd995960721b60648201526084016104f2565b6107108585858585610e20565b5050505050565b6060815183511461077c5760405162461bcd60e51b815260206004820152602960248201527f455243313135353a206163636f756e747320616e6420696473206c656e677468604482015268040dad2e6dac2e8c6d60bb1b60648201526084016104f2565b6000835167ffffffffffffffff811115610798576107986119b5565b6040519080825280602002602001820160405280156107c1578160200160208202803683370190505b50905060005b84518110156108395761080c8582815181106107e5576107e5612021565b60200260200101518583815181106107ff576107ff612021565b602002602001015161048a565b82828151811061081e5761081e612021565b60209081029190910101526108328161204d565b90506107c7565b509392505050565b6001600160a01b03831633148061085d575061085d83336103fe565b6108795760405162461bcd60e51b81526004016104f290612068565b610884838383610fbc565b505050565b6003546001600160a01b031633146108b35760405162461bcd60e51b81526004016104f290611eee565b6108bd6000611138565b565b6003546001600160a01b031633146108e95760405162461bcd60e51b81526004016104f290611eee565b6009805461ff001916610100179055565b6003546001600160a01b031633146109245760405162461bcd60e51b81526004016104f290611eee565b600954610100900460ff161561097c5760405162461bcd60e51b815260206004820152601b60248201527f436f6e7472616374206d65746164617461206973206c6f636b6564000000000060448201526064016104f2565b61088460088383611814565b61099333838361118a565b5050565b6003546001600160a01b031633146109c15760405162461bcd60e51b81526004016104f290611eee565b6007546109cf9060016120b1565b811115610a395760405162461bcd60e51b815260206004820152603260248201527f43414e4e4f5420494e435245415345204d415820544f4b454e20544f204d494e604482015271542057495448204d4f5245205448414e203160701b60648201526084016104f2565b600554821015610aa45760405162461bcd60e51b815260206004820152603060248201527f43414e4e4f5420534554204e455720535550504c59204c4f574552205448414e60448201526f2050524556494f555320535550504c5960801b60648201526084016104f2565b600582905560068190556007548111156109935760075550565b60095460ff16610afe5760405162461bcd60e51b815260206004820152600b60248201526a14d053114810d313d4d15160aa1b60448201526064016104f2565b60055460045410610b455760405162461bcd60e51b815260206004820152601160248201527013505617d352539517d050d21251559151607a1b60448201526064016104f2565b336000908152600a602052604090205460ff1615610ba55760405162461bcd60e51b815260206004820152601760248201527f4d4158203120544f4b454e20504552204144445245535300000000000000000060448201526064016104f2565b600160046000828254610bb891906120b1565b9091555050336000818152600a60209081526040808320805460ff1916600190811790915560065482519384019092529282526108bd9392909161126b565b6001600160a01b038516331480610c135750610c1385336103fe565b610c2f5760405162461bcd60e51b81526004016104f290612068565b6107108585858585611375565b6003546001600160a01b03163314610c665760405162461bcd60e51b81526004016104f290611eee565b6001600160a01b038116610ccb5760405162461bcd60e51b815260206004820152602660248201527f4f776e61626c653a206e6577206f776e657220697320746865207a65726f206160448201526564647265737360d01b60648201526084016104f2565b610cd481611138565b50565b6001600160a01b038316331480610cf35750610cf383336103fe565b610d0f5760405162461bcd60e51b81526004016104f290612068565b610884838383611492565b606081610d3e5750506040805180820190915260018152600360fc1b602082015290565b8160005b8115610d685780610d528161204d565b9150610d619050600a836120df565b9150610d42565b60008167ffffffffffffffff811115610d8357610d836119b5565b6040519080825280601f01601f191660200182016040528015610dad576020820181803683370190505b5090505b8415610e1857610dc26001836120f3565b9150610dcf600a8661210a565b610dda9060306120b1565b60f81b818381518110610def57610def612021565b60200101906001600160f81b031916908160001a905350610e11600a866120df565b9450610db1565b949350505050565b8151835114610e415760405162461bcd60e51b81526004016104f29061211e565b6001600160a01b038416610e675760405162461bcd60e51b81526004016104f290612166565b3360005b8451811015610f4e576000858281518110610e8857610e88612021565b602002602001015190506000858381518110610ea657610ea6612021565b602090810291909101810151600084815280835260408082206001600160a01b038e168352909352919091205490915081811015610ef65760405162461bcd60e51b81526004016104f2906121ab565b6000838152602081815260408083206001600160a01b038e8116855292528083208585039055908b16825281208054849290610f339084906120b1565b9250508190555050505080610f479061204d565b9050610e6b565b50846001600160a01b0316866001600160a01b0316826001600160a01b03167f4a39dc06d4c0dbc64b70af90fd698a233a518aa5d07e595d983b8c0526c8f7fb8787604051610f9e9291906121f5565b60405180910390a4610fb4818787878787611594565b505050505050565b6001600160a01b038316610fe25760405162461bcd60e51b81526004016104f29061221a565b80518251146110035760405162461bcd60e51b81526004016104f29061211e565b604080516020810190915260009081905233905b83518110156110d957600084828151811061103457611034612021565b60200260200101519050600084838151811061105257611052612021565b602090810291909101810151600084815280835260408082206001600160a01b038c1683529093529190912054909150818110156110a25760405162461bcd60e51b81526004016104f29061225d565b6000928352602083815260408085206001600160a01b038b16865290915290922091039055806110d18161204d565b915050611017565b5060006001600160a01b0316846001600160a01b0316826001600160a01b03167f4a39dc06d4c0dbc64b70af90fd698a233a518aa5d07e595d983b8c0526c8f7fb868660405161112a9291906121f5565b60405180910390a450505050565b600380546001600160a01b038381166001600160a01b0319831681179093556040519116919082907f8be0079c531659141344cd1fd0a4f28419497f9722a3daafe3b4186f6b6457e090600090a35050565b816001600160a01b0316836001600160a01b031614156111fe5760405162461bcd60e51b815260206004820152602960248201527f455243313135353a2073657474696e6720617070726f76616c20737461747573604482015268103337b91039b2b63360b91b60648201526084016104f2565b6001600160a01b03838116600081815260016020908152604080832094871680845294825291829020805460ff191686151590811790915591519182527f17307eab39ab6107e8899845ad3d59bd9653f200f220920489ca2b5937696c31910160405180910390a3505050565b6001600160a01b0384166112cb5760405162461bcd60e51b815260206004820152602160248201527f455243313135353a206d696e7420746f20746865207a65726f206164647265736044820152607360f81b60648201526084016104f2565b336112e5816000876112dc886116ff565b610710886116ff565b6000848152602081815260408083206001600160a01b0389168452909152812080548592906113159084906120b1565b909155505060408051858152602081018590526001600160a01b0380881692600092918516917fc3d58168c5ae7397731d063d5bbf3d657854427343f4c083240f7aacaa2d0f62910160405180910390a46107108160008787878761174a565b6001600160a01b03841661139b5760405162461bcd60e51b81526004016104f290612166565b336113ab8187876112dc886116ff565b6000848152602081815260408083206001600160a01b038a168452909152902054838110156113ec5760405162461bcd60e51b81526004016104f2906121ab565b6000858152602081815260408083206001600160a01b038b81168552925280832087850390559088168252812080548692906114299084906120b1565b909155505060408051868152602081018690526001600160a01b03808916928a821692918616917fc3d58168c5ae7397731d063d5bbf3d657854427343f4c083240f7aacaa2d0f62910160405180910390a461148982888888888861174a565b50505050505050565b6001600160a01b0383166114b85760405162461bcd60e51b81526004016104f29061221a565b336114e8818560006114c9876116ff565b6114d2876116ff565b5050604080516020810190915260009052505050565b6000838152602081815260408083206001600160a01b0388168452909152902054828110156115295760405162461bcd60e51b81526004016104f29061225d565b6000848152602081815260408083206001600160a01b03898116808652918452828520888703905582518981529384018890529092908616917fc3d58168c5ae7397731d063d5bbf3d657854427343f4c083240f7aacaa2d0f62910160405180910390a45050505050565b6001600160a01b0384163b15610fb45760405163bc197c8160e01b81526001600160a01b0385169063bc197c81906115d890899089908890889088906004016122a1565b602060405180830381600087803b1580156115f257600080fd5b505af1925050508015611622575060408051601f3d908101601f1916820190925261161f918101906122ff565b60015b6116cf5761162e61231c565b806308c379a014156116685750611643612338565b8061164e575061166a565b8060405162461bcd60e51b81526004016104f29190611989565b505b60405162461bcd60e51b815260206004820152603460248201527f455243313135353a207472616e7366657220746f206e6f6e20455243313135356044820152732932b1b2b4bb32b91034b6b83632b6b2b73a32b960611b60648201526084016104f2565b6001600160e01b0319811663bc197c8160e01b146114895760405162461bcd60e51b81526004016104f2906123c2565b6040805160018082528183019092526060916000919060208083019080368337019050509050828160008151811061173957611739612021565b602090810291909101015292915050565b6001600160a01b0384163b15610fb45760405163f23a6e6160e01b81526001600160a01b0385169063f23a6e619061178e908990899088908890889060040161240a565b602060405180830381600087803b1580156117a857600080fd5b505af19250505080156117d8575060408051601f3d908101601f191682019092526117d5918101906122ff565b60015b6117e45761162e61231c565b6001600160e01b0319811663f23a6e6160e01b146114895760405162461bcd60e51b81526004016104f2906123c2565b82805461182090611f23565b90600052602060002090601f0160209004810192826118425760008555611888565b82601f1061185b5782800160ff19823516178555611888565b82800160010185558215611888579182015b8281111561188857823582559160200191906001019061186d565b50611894929150611898565b5090565b5b808211156118945760008155600101611899565b80356001600160a01b03811681146118c457600080fd5b919050565b600080604083850312156118dc57600080fd5b6118e5836118ad565b946020939093013593505050565b6001600160e01b031981168114610cd457600080fd5b60006020828403121561191b57600080fd5b8135611926816118f3565b9392505050565b60005b83811015611948578181015183820152602001611930565b83811115611957576000848401525b50505050565b6000815180845261197581602086016020860161192d565b601f01601f19169290920160200192915050565b602081526000611926602083018461195d565b6000602082840312156119ae57600080fd5b5035919050565b634e487b7160e01b600052604160045260246000fd5b601f8201601f1916810167ffffffffffffffff811182821017156119f1576119f16119b5565b6040525050565b600067ffffffffffffffff821115611a1257611a126119b5565b5060051b60200190565b600082601f830112611a2d57600080fd5b81356020611a3a826119f8565b604051611a4782826119cb565b83815260059390931b8501820192828101915086841115611a6757600080fd5b8286015b84811015611a825780358352918301918301611a6b565b509695505050505050565b600082601f830112611a9e57600080fd5b813567ffffffffffffffff811115611ab857611ab86119b5565b604051611acf601f8301601f1916602001826119cb565b818152846020838601011115611ae457600080fd5b816020850160208301376000918101602001919091529392505050565b600080600080600060a08688031215611b1957600080fd5b611b22866118ad565b9450611b30602087016118ad565b9350604086013567ffffffffffffffff80821115611b4d57600080fd5b611b5989838a01611a1c565b94506060880135915080821115611b6f57600080fd5b611b7b89838a01611a1c565b93506080880135915080821115611b9157600080fd5b50611b9e88828901611a8d565b9150509295509295909350565b60008060408385031215611bbe57600080fd5b823567ffffffffffffffff80821115611bd657600080fd5b818501915085601f830112611bea57600080fd5b81356020611bf7826119f8565b604051611c0482826119cb565b83815260059390931b8501820192828101915089841115611c2457600080fd5b948201945b83861015611c4957611c3a866118ad565b82529482019490820190611c29565b96505086013592505080821115611c5f57600080fd5b50611c6c85828601611a1c565b9150509250929050565b600081518084526020808501945080840160005b83811015611ca657815187529582019590820190600101611c8a565b509495945050505050565b6020815260006119266020830184611c76565b600080600060608486031215611cd957600080fd5b611ce2846118ad565b9250602084013567ffffffffffffffff80821115611cff57600080fd5b611d0b87838801611a1c565b93506040860135915080821115611d2157600080fd5b50611d2e86828701611a1c565b9150509250925092565b600060208284031215611d4a57600080fd5b611926826118ad565b60008060208385031215611d6657600080fd5b823567ffffffffffffffff80821115611d7e57600080fd5b818501915085601f830112611d9257600080fd5b813581811115611da157600080fd5b866020828501011115611db357600080fd5b60209290920196919550909350505050565b60008060408385031215611dd857600080fd5b611de1836118ad565b915060208301358015158114611df657600080fd5b809150509250929050565b60008060408385031215611e1457600080fd5b50508035926020909101359150565b60008060408385031215611e3657600080fd5b611e3f836118ad565b9150611e4d602084016118ad565b90509250929050565b600080600080600060a08688031215611e6e57600080fd5b611e77866118ad565b9450611e85602087016118ad565b93506040860135925060608601359150608086013567ffffffffffffffff811115611eaf57600080fd5b611b9e88828901611a8d565b600080600060608486031215611ed057600080fd5b611ed9846118ad565b95602085013595506040909401359392505050565b6020808252818101527f4f776e61626c653a2063616c6c6572206973206e6f7420746865206f776e6572604082015260600190565b600181811c90821680611f3757607f821691505b60208210811415611f5857634e487b7160e01b600052602260045260246000fd5b50919050565b60008151611f7081856020860161192d565b9290920192915050565b600080845481600182811c915080831680611f9657607f831692505b6020808410821415611fb657634e487b7160e01b86526022600452602486fd5b818015611fca5760018114611fdb57612008565b60ff19861689528489019650612008565b60008b81526020902060005b868110156120005781548b820152908501908301611fe7565b505084890196505b5050505050506120188185611f5e565b95945050505050565b634e487b7160e01b600052603260045260246000fd5b634e487b7160e01b600052601160045260246000fd5b600060001982141561206157612061612037565b5060010190565b60208082526029908201527f455243313135353a2063616c6c6572206973206e6f74206f776e6572206e6f7260408201526808185c1c1c9bdd995960ba1b606082015260800190565b600082198211156120c4576120c4612037565b500190565b634e487b7160e01b600052601260045260246000fd5b6000826120ee576120ee6120c9565b500490565b60008282101561210557612105612037565b500390565b600082612119576121196120c9565b500690565b60208082526028908201527f455243313135353a2069647320616e6420616d6f756e7473206c656e677468206040820152670dad2e6dac2e8c6d60c31b606082015260800190565b60208082526025908201527f455243313135353a207472616e7366657220746f20746865207a65726f206164604082015264647265737360d81b606082015260800190565b6020808252602a908201527f455243313135353a20696e73756666696369656e742062616c616e636520666f60408201526939103a3930b739b332b960b11b606082015260800190565b6040815260006122086040830185611c76565b82810360208401526120188185611c76565b60208082526023908201527f455243313135353a206275726e2066726f6d20746865207a65726f206164647260408201526265737360e81b606082015260800190565b60208082526024908201527f455243313135353a206275726e20616d6f756e7420657863656564732062616c604082015263616e636560e01b606082015260800190565b6001600160a01b0386811682528516602082015260a0604082018190526000906122cd90830186611c76565b82810360608401526122df8186611c76565b905082810360808401526122f3818561195d565b98975050505050505050565b60006020828403121561231157600080fd5b8151611926816118f3565b600060033d11156123355760046000803e5060005160e01c5b90565b600060443d10156123465790565b6040516003193d81016004833e81513d67ffffffffffffffff816024840111818411171561237657505050505090565b828501915081518181111561238e5750505050505090565b843d87010160208285010111156123a85750505050505090565b6123b7602082860101876119cb565b509095945050505050565b60208082526028908201527f455243313135353a204552433131353552656365697665722072656a656374656040820152676420746f6b656e7360c01b606082015260800190565b6001600160a01b03868116825285166020820152604081018490526060810183905260a0608082018190526000906124449083018461195d565b97965050505050505056fea26469706673582212204e2ecc8655735a2e00533f3b6a54065a6c06364325258256688f9ccdcd045b9c64736f6c63430008090033",
  "linkReferences": {},
  "deployedLinkReferences": {}
}